{
  "contractName": "AMM",
  "abi": [
    {
      "inputs": [
        {
          "internalType": "string",
          "name": "_poolName",
          "type": "string"
        },
        {
          "internalType": "string",
          "name": "_poolSymbol",
          "type": "string"
        },
        {
          "internalType": "address",
          "name": "_tokenFactoryAddress",
          "type": "address"
        },
        {
          "internalType": "address",
          "name": "_priceFeederAddress",
          "type": "address"
        },
        {
          "internalType": "address",
          "name": "_perpetualAddress",
          "type": "address"
        }
      ],
      "stateMutability": "nonpayable",
      "type": "constructor"
    },
    {
      "anonymous": false,
      "inputs": [],
      "name": "CreatedAMM",
      "type": "event"
    },
    {
      "anonymous": false,
      "inputs": [
        {
          "indexed": true,
          "internalType": "address",
          "name": "previousOwner",
          "type": "address"
        },
        {
          "indexed": true,
          "internalType": "address",
          "name": "newOwner",
          "type": "address"
        }
      ],
      "name": "OwnershipTransferred",
      "type": "event"
    },
    {
      "anonymous": false,
      "inputs": [
        {
          "components": [
            {
              "internalType": "uint256",
              "name": "lastFundingTime",
              "type": "uint256"
            },
            {
              "internalType": "int256",
              "name": "lastPremium",
              "type": "int256"
            },
            {
              "internalType": "int256",
              "name": "lastEMAPremium",
              "type": "int256"
            },
            {
              "internalType": "uint256",
              "name": "lastIndexPrice",
              "type": "uint256"
            },
            {
              "internalType": "int256",
              "name": "accumulatedFundingPerContract",
              "type": "int256"
            }
          ],
          "indexed": false,
          "internalType": "struct Types.FundingState",
          "name": "fundingState",
          "type": "tuple"
        }
      ],
      "name": "UpdateFundingRate",
      "type": "event"
    },
    {
      "anonymous": false,
      "inputs": [
        {
          "indexed": true,
          "internalType": "address",
          "name": "priceFeeder",
          "type": "address"
        }
      ],
      "name": "UpdatePriceFeeder",
      "type": "event"
    },
    {
      "inputs": [
        {
          "internalType": "address",
          "name": "_address",
          "type": "address"
        }
      ],
      "name": "addAddress",
      "outputs": [],
      "stateMutability": "nonpayable",
      "type": "function"
    },
    {
      "inputs": [],
      "name": "emaAlpha",
      "outputs": [
        {
          "internalType": "int256",
          "name": "",
          "type": "int256"
        }
      ],
      "stateMutability": "view",
      "type": "function",
      "constant": true
    },
    {
      "inputs": [],
      "name": "emaAlpha2",
      "outputs": [
        {
          "internalType": "int256",
          "name": "",
          "type": "int256"
        }
      ],
      "stateMutability": "view",
      "type": "function",
      "constant": true
    },
    {
      "inputs": [],
      "name": "emaAlpha2Ln",
      "outputs": [
        {
          "internalType": "int256",
          "name": "",
          "type": "int256"
        }
      ],
      "stateMutability": "view",
      "type": "function",
      "constant": true
    },
    {
      "inputs": [],
      "name": "fundingCalculator",
      "outputs": [
        {
          "internalType": "contract IFundingCalculator",
          "name": "",
          "type": "address"
        }
      ],
      "stateMutability": "view",
      "type": "function",
      "constant": true
    },
    {
      "inputs": [],
      "name": "fundingDampener",
      "outputs": [
        {
          "internalType": "int256",
          "name": "",
          "type": "int256"
        }
      ],
      "stateMutability": "view",
      "type": "function",
      "constant": true
    },
    {
      "inputs": [],
      "name": "isOwner",
      "outputs": [
        {
          "internalType": "bool",
          "name": "",
          "type": "bool"
        }
      ],
      "stateMutability": "view",
      "type": "function",
      "constant": true
    },
    {
      "inputs": [
        {
          "internalType": "address",
          "name": "_address",
          "type": "address"
        }
      ],
      "name": "isWhitelisted",
      "outputs": [
        {
          "internalType": "bool",
          "name": "",
          "type": "bool"
        }
      ],
      "stateMutability": "view",
      "type": "function",
      "constant": true
    },
    {
      "inputs": [],
      "name": "markPremiumLimit",
      "outputs": [
        {
          "internalType": "int256",
          "name": "",
          "type": "int256"
        }
      ],
      "stateMutability": "view",
      "type": "function",
      "constant": true
    },
    {
      "inputs": [],
      "name": "owner",
      "outputs": [
        {
          "internalType": "address",
          "name": "",
          "type": "address"
        }
      ],
      "stateMutability": "view",
      "type": "function",
      "constant": true
    },
    {
      "inputs": [],
      "name": "perpetual",
      "outputs": [
        {
          "internalType": "contract IPerpetual",
          "name": "",
          "type": "address"
        }
      ],
      "stateMutability": "view",
      "type": "function",
      "constant": true
    },
    {
      "inputs": [],
      "name": "priceFeeder",
      "outputs": [
        {
          "internalType": "contract IPriceFeeder",
          "name": "",
          "type": "address"
        }
      ],
      "stateMutability": "view",
      "type": "function",
      "constant": true
    },
    {
      "inputs": [
        {
          "internalType": "address",
          "name": "_address",
          "type": "address"
        }
      ],
      "name": "removeAddress",
      "outputs": [],
      "stateMutability": "nonpayable",
      "type": "function"
    },
    {
      "inputs": [],
      "name": "renounceOwnership",
      "outputs": [],
      "stateMutability": "nonpayable",
      "type": "function"
    },
    {
      "inputs": [],
      "name": "shareToken",
      "outputs": [
        {
          "internalType": "contract IExpandedIERC20",
          "name": "",
          "type": "address"
        }
      ],
      "stateMutability": "view",
      "type": "function",
      "constant": true
    },
    {
      "inputs": [
        {
          "internalType": "address",
          "name": "newOwner",
          "type": "address"
        }
      ],
      "name": "transferOwnership",
      "outputs": [],
      "stateMutability": "nonpayable",
      "type": "function"
    },
    {
      "inputs": [],
      "name": "updatePremiumPrize",
      "outputs": [
        {
          "internalType": "uint256",
          "name": "",
          "type": "uint256"
        }
      ],
      "stateMutability": "view",
      "type": "function",
      "constant": true
    },
    {
      "inputs": [],
      "name": "version",
      "outputs": [
        {
          "internalType": "uint16",
          "name": "",
          "type": "uint16"
        }
      ],
      "stateMutability": "view",
      "type": "function",
      "constant": true
    },
    {
      "inputs": [
        {
          "internalType": "address",
          "name": "_priceFeederAddress",
          "type": "address"
        }
      ],
      "name": "setPriceFeeder",
      "outputs": [],
      "stateMutability": "nonpayable",
      "type": "function"
    },
    {
      "inputs": [
        {
          "internalType": "uint256",
          "name": "value",
          "type": "uint256"
        }
      ],
      "name": "setUpdatePremiumPrize",
      "outputs": [],
      "stateMutability": "nonpayable",
      "type": "function"
    },
    {
      "inputs": [
        {
          "internalType": "int256",
          "name": "value",
          "type": "int256"
        }
      ],
      "name": "setMarkPremiumLimit",
      "outputs": [],
      "stateMutability": "nonpayable",
      "type": "function"
    },
    {
      "inputs": [
        {
          "internalType": "int256",
          "name": "value",
          "type": "int256"
        }
      ],
      "name": "setEmaAlpha",
      "outputs": [],
      "stateMutability": "nonpayable",
      "type": "function"
    },
    {
      "inputs": [
        {
          "internalType": "int256",
          "name": "value",
          "type": "int256"
        }
      ],
      "name": "setFundingDampener",
      "outputs": [],
      "stateMutability": "nonpayable",
      "type": "function"
    },
    {
      "inputs": [
        {
          "internalType": "int256",
          "name": "value",
          "type": "int256"
        }
      ],
      "name": "setAccumulatedFundingPerContract",
      "outputs": [],
      "stateMutability": "nonpayable",
      "type": "function"
    },
    {
      "inputs": [],
      "name": "currentFundingRate",
      "outputs": [
        {
          "internalType": "int256",
          "name": "",
          "type": "int256"
        }
      ],
      "stateMutability": "nonpayable",
      "type": "function"
    },
    {
      "inputs": [],
      "name": "lastFundingRate",
      "outputs": [
        {
          "internalType": "int256",
          "name": "",
          "type": "int256"
        }
      ],
      "stateMutability": "view",
      "type": "function",
      "constant": true
    },
    {
      "inputs": [],
      "name": "updateIndex",
      "outputs": [],
      "stateMutability": "nonpayable",
      "type": "function"
    },
    {
      "inputs": [],
      "name": "shareTokenAddress",
      "outputs": [
        {
          "internalType": "address",
          "name": "",
          "type": "address"
        }
      ],
      "stateMutability": "view",
      "type": "function",
      "constant": true
    },
    {
      "inputs": [],
      "name": "indexPrice",
      "outputs": [
        {
          "internalType": "uint256",
          "name": "price",
          "type": "uint256"
        },
        {
          "internalType": "uint256",
          "name": "timestamp",
          "type": "uint256"
        }
      ],
      "stateMutability": "view",
      "type": "function",
      "constant": true
    },
    {
      "inputs": [
        {
          "internalType": "address",
          "name": "_fundingCalculatorAddress",
          "type": "address"
        }
      ],
      "name": "setFundingCalculator",
      "outputs": [],
      "stateMutability": "nonpayable",
      "type": "function"
    },
    {
      "inputs": [
        {
          "internalType": "uint256",
          "name": "amount",
          "type": "uint256"
        }
      ],
      "name": "createPool",
      "outputs": [],
      "stateMutability": "nonpayable",
      "type": "function"
    },
    {
      "inputs": [
        {
          "internalType": "uint256",
          "name": "amount",
          "type": "uint256"
        }
      ],
      "name": "addLiquidity",
      "outputs": [],
      "stateMutability": "nonpayable",
      "type": "function"
    },
    {
      "inputs": [
        {
          "internalType": "uint256",
          "name": "shareAmount",
          "type": "uint256"
        }
      ],
      "name": "removeLiquidity",
      "outputs": [],
      "stateMutability": "nonpayable",
      "type": "function"
    },
    {
      "inputs": [],
      "name": "positionSize",
      "outputs": [
        {
          "internalType": "uint256",
          "name": "",
          "type": "uint256"
        }
      ],
      "stateMutability": "view",
      "type": "function",
      "constant": true
    },
    {
      "inputs": [],
      "name": "currentAvailableMargin",
      "outputs": [
        {
          "internalType": "uint256",
          "name": "",
          "type": "uint256"
        }
      ],
      "stateMutability": "nonpayable",
      "type": "function"
    },
    {
      "inputs": [],
      "name": "getAvailableMargin",
      "outputs": [
        {
          "internalType": "uint256",
          "name": "",
          "type": "uint256"
        }
      ],
      "stateMutability": "view",
      "type": "function",
      "constant": true
    },
    {
      "inputs": [],
      "name": "currentFairPrice",
      "outputs": [
        {
          "internalType": "uint256",
          "name": "",
          "type": "uint256"
        }
      ],
      "stateMutability": "nonpayable",
      "type": "function"
    },
    {
      "inputs": [],
      "name": "currentMarkPrice",
      "outputs": [
        {
          "internalType": "uint256",
          "name": "",
          "type": "uint256"
        }
      ],
      "stateMutability": "nonpayable",
      "type": "function"
    },
    {
      "inputs": [],
      "name": "getMarkPrice",
      "outputs": [
        {
          "internalType": "uint256",
          "name": "",
          "type": "uint256"
        }
      ],
      "stateMutability": "view",
      "type": "function",
      "constant": true
    },
    {
      "inputs": [],
      "name": "getFairPrice",
      "outputs": [
        {
          "internalType": "uint256",
          "name": "",
          "type": "uint256"
        }
      ],
      "stateMutability": "view",
      "type": "function",
      "constant": true
    },
    {
      "inputs": [],
      "name": "lastFundingState",
      "outputs": [
        {
          "components": [
            {
              "internalType": "uint256",
              "name": "lastFundingTime",
              "type": "uint256"
            },
            {
              "internalType": "int256",
              "name": "lastPremium",
              "type": "int256"
            },
            {
              "internalType": "int256",
              "name": "lastEMAPremium",
              "type": "int256"
            },
            {
              "internalType": "uint256",
              "name": "lastIndexPrice",
              "type": "uint256"
            },
            {
              "internalType": "int256",
              "name": "accumulatedFundingPerContract",
              "type": "int256"
            }
          ],
          "internalType": "struct Types.FundingState",
          "name": "",
          "type": "tuple"
        }
      ],
      "stateMutability": "view",
      "type": "function",
      "constant": true
    },
    {
      "inputs": [],
      "name": "currentAccumulatedFundingPerContract",
      "outputs": [
        {
          "internalType": "int256",
          "name": "",
          "type": "int256"
        }
      ],
      "stateMutability": "nonpayable",
      "type": "function"
    },
    {
      "inputs": [],
      "name": "getAccumulatedFundingPerContract",
      "outputs": [
        {
          "internalType": "int256",
          "name": "",
          "type": "int256"
        }
      ],
      "stateMutability": "view",
      "type": "function",
      "constant": true
    },
    {
      "inputs": [
        {
          "internalType": "uint256",
          "name": "depositAmount",
          "type": "uint256"
        },
        {
          "internalType": "uint256",
          "name": "tradeAmount",
          "type": "uint256"
        },
        {
          "internalType": "uint256",
          "name": "limitPrice",
          "type": "uint256"
        },
        {
          "internalType": "uint256",
          "name": "deadline",
          "type": "uint256"
        }
      ],
      "name": "depositAndBuy",
      "outputs": [],
      "stateMutability": "nonpayable",
      "type": "function"
    },
    {
      "inputs": [
        {
          "internalType": "uint256",
          "name": "depositAmount",
          "type": "uint256"
        },
        {
          "internalType": "uint256",
          "name": "tradeAmount",
          "type": "uint256"
        },
        {
          "internalType": "uint256",
          "name": "limitPrice",
          "type": "uint256"
        },
        {
          "internalType": "uint256",
          "name": "deadline",
          "type": "uint256"
        }
      ],
      "name": "depositAndSell",
      "outputs": [],
      "stateMutability": "nonpayable",
      "type": "function"
    },
    {
      "inputs": [
        {
          "internalType": "uint256",
          "name": "amount",
          "type": "uint256"
        },
        {
          "internalType": "uint256",
          "name": "limitPrice",
          "type": "uint256"
        },
        {
          "internalType": "uint256",
          "name": "deadline",
          "type": "uint256"
        }
      ],
      "name": "buy",
      "outputs": [
        {
          "internalType": "uint256",
          "name": "",
          "type": "uint256"
        }
      ],
      "stateMutability": "nonpayable",
      "type": "function"
    },
    {
      "inputs": [
        {
          "internalType": "uint256",
          "name": "amount",
          "type": "uint256"
        },
        {
          "internalType": "uint256",
          "name": "limitPrice",
          "type": "uint256"
        },
        {
          "internalType": "uint256",
          "name": "deadline",
          "type": "uint256"
        }
      ],
      "name": "sell",
      "outputs": [
        {
          "internalType": "uint256",
          "name": "",
          "type": "uint256"
        }
      ],
      "stateMutability": "nonpayable",
      "type": "function"
    },
    {
      "inputs": [
        {
          "internalType": "uint256",
          "name": "amount",
          "type": "uint256"
        }
      ],
      "name": "getBuyPrice",
      "outputs": [
        {
          "internalType": "uint256",
          "name": "price",
          "type": "uint256"
        }
      ],
      "stateMutability": "nonpayable",
      "type": "function"
    },
    {
      "inputs": [
        {
          "internalType": "uint256",
          "name": "amount",
          "type": "uint256"
        }
      ],
      "name": "getSellPrice",
      "outputs": [
        {
          "internalType": "uint256",
          "name": "price",
          "type": "uint256"
        }
      ],
      "stateMutability": "nonpayable",
      "type": "function"
    }
  ],
  "bytecode": "0x6080604052670de0b6b3a7640000600b556611c37937e08000600c55660bd29acb4ffc98600d55670dd4e418dc140368600e55660bd7a6dd37709619600f556601c6bf526340006010553480156200005657600080fd5b5060405162004122380380620041228339810160408190526200007991620003fa565b6000805460ff19166001178155620000996001600160e01b036200022a16565b60008054610100600160a81b0319166101006001600160a01b038416908102919091178255604051929350917f8be0079c531659141344cd1fd0a4f28419497f9722a3daafe3b4186f6b6457e0908290a350620000fe6001600160e01b036200022e16565b620001116001600160e01b036200025e16565b60405163e8a0aed360e01b815283906001600160a01b0382169063e8a0aed390620001469089908990601290600401620004d1565b602060405180830381600087803b1580156200016157600080fd5b505af115801562000176573d6000803e3d6000fd5b505050506040513d601f19601f820116820180604052506200019c9190810190620003d4565b600780546001600160a01b03199081166001600160a01b039384161790915560088054821686841617905560098054909116918416919091179055620001e2336200026a565b6040517fc1b5b4df8fcd236ec161f8b917c0dbcf00b751cbc548708df183c0eead8c3ddc90600090a1506200021f6001600160e01b036200031916565b50505050506200060d565b3390565b60005460ff166200025c5760405162461bcd60e51b815260040162000253906200058a565b60405180910390fd5b565b6000805460ff19169055565b6200027d6001600160e01b036200032816565b6200029c5760405162461bcd60e51b8152600401620002539062000555565b806001600160a01b038116620002c65760405162461bcd60e51b815260040162000253906200050e565b6001600160a01b03821660009081526001602052604090205460ff1615620002ee5762000315565b6001600160a01b0382166000908152600160208190526040909120805460ff191690911790555b5050565b6000805460ff19166001179055565b6000805461010090046001600160a01b0316620003446200022a565b6001600160a01b031614905090565b600082601f83011262000364578081fd5b81516001600160401b03808211156200037b578283fd5b604051601f8301601f1916810160200182811182821017156200039c578485fd5b604052828152925082848301602001861015620003b857600080fd5b620003cb836020830160208801620005c1565b50505092915050565b600060208284031215620003e6578081fd5b8151620003f381620005f4565b9392505050565b600080600080600060a0868803121562000412578081fd5b85516001600160401b038082111562000429578283fd5b6200043789838a0162000353565b965060208801519150808211156200044d578283fd5b506200045c8882890162000353565b94505060408601516200046f81620005f4565b60608701519093506200048281620005f4565b60808701519092506200049581620005f4565b809150509295509295909350565b60008151808452620004bd816020860160208601620005c1565b601f01601f19169290920160200192915050565b600060608252620004e66060830186620004a3565b8281036020840152620004fa8186620004a3565b91505060ff83166040830152949350505050565b60208082526027908201527f76616c69646174657320616e206164647265737320746861742069742069736e60408201526609dd081b9d5b1b60ca1b606082015260800190565b6020808252818101527f4f776e61626c653a2063616c6c6572206973206e6f7420746865206f776e6572604082015260600190565b6020808252601f908201527f5265656e7472616e637947756172643a207265656e7472616e742063616c6c00604082015260600190565b60005b83811015620005de578181015183820152602001620005c4565b83811115620005ee576000848401525b50505050565b6001600160a01b03811681146200060a57600080fd5b50565b613b05806200061d6000396000f3fe608060405234801561001057600080fd5b50600436106102bb5760003560e01c8063715018a611610182578063b1d7f7db116100e9578063cf682c6a116100a2578063de12bcac1161007c578063de12bcac14610548578063dedcd07414610550578063e21ebac914610558578063f2fde38b1461056b576102bb565b8063cf682c6a1461051a578063d3c9727c14610522578063d42dc19714610535576102bb565b8063b1d7f7db146104c9578063b3fe37c3146104d1578063b8f110bc146104d9578063b9f412b0146104ec578063ba730e53146104f4578063cb0d432f14610507576102bb565b80638f32d59b1161013b5780638f32d59b1461048357806395af65dd1461048b578063960fb9b2146104935780639c8f9f231461049b5780639d0d2b88146104ae578063a8681826146104c1576102bb565b8063715018a61461043d57806373da22bf146104455780638259e6a01461044d5780638407e5321461046057806384f523ad146104735780638da5cb5b1461047b576102bb565b80633aef4d0b116102265780634ba79dfe116101df5780634ba79dfe146103ea57806351c6590a146103fd57806354fd4d501461041057806360409632146104255780636c9fa59e1461042d5780636d16006914610435576102bb565b80633aef4d0b146103975780633af32abf1461039f5780633b495ebf146103bf5780633f923088146103c757806340993b26146103cf5780634928229a146103e2576102bb565b80631d844c2d116102785780631d844c2d146103465780631e8a91b6146103595780631fada4851461036c5780632c4ac1111461037457806330e04ca11461037c57806338eada1c14610384576102bb565b8063025c7d03146102c057806306a7570c146102d557806308d4db14146102f357806310bace8c146103135780631927f7921461032957806319e67d751461033e575b600080fd5b6102d36102ce3660046131ae565b61057e565b005b6102dd6105e0565b6040516102ea9190613a2d565b60405180910390f35b6103066103013660046131ae565b61061d565b6040516102ea9190613397565b61031b610683565b6040516102ea929190613aa9565b6103316107b7565b6040516102ea91906132ed565b6103316107c6565b6102d361035436600461314b565b6107d5565b6102d36103673660046131ae565b610851565b6103316108aa565b6103066108b9565b6103066108bf565b6102d361039236600461314b565b6108d6565b610306610972565b6103b26103ad36600461314b565b610984565b6040516102ea9190613377565b6103066109a2565b6103066109a8565b6103066103dd366004613291565b6109ae565b6103066109c4565b6102d36103f836600461314b565b610a12565b6102d361040b3660046131ae565b610a7f565b610418610d6c565b6040516102ea9190613a9a565b610306610d71565b610331610d7b565b610306610d8a565b6102d3610d94565b610306610e07565b6102d361045b3660046131ae565b610e0d565b6102d361046e36600461314b565b61105f565b6103066110b3565b610331611144565b6103b2611158565b610306611181565b610306611192565b6102d36104a93660046131ae565b611198565b6102d36104bc3660046131ae565b6115b1565b6103066115e8565b6103066115fa565b610306611604565b6102d36104e73660046132bc565b61160a565b6102d361168e565b6103066105023660046131ae565b61173d565b6102d36105153660046131ae565b61178c565b610306611803565b610306610530366004613291565b611809565b6102d36105433660046131ae565b611817565b610306611870565b610331611882565b6102d36105663660046132bc565b611891565b6102d361057936600461314b565b61190d565b600061058861193a565b905061059381610984565b6105b85760405162461bcd60e51b81526004016105af9061373f565b60405180910390fd5b600c548214156105da5760405162461bcd60e51b81526004016105af906138f4565b50600c55565b6105e86130e5565b506040805160a08101825260025481526003546020820152600454918101919091526005546060820152600654608082015290565b600080600061062a61193e565b9092509050801580159061063d57508115155b6106595760405162461bcd60e51b81526004016105af906138d0565b61067961066c828663ffffffff6119ef16565b839063ffffffff611a3a16565b925050505b919050565b600080600860009054906101000a90046001600160a01b03166001600160a01b031663209652556040518163ffffffff1660e01b815260040160206040518083038186803b1580156106d457600080fd5b505afa1580156106e8573d6000803e3d6000fd5b505050506040513d601f19601f8201168201806040525061070c91908101906131c6565b9150600860009054906101000a90046001600160a01b03166001600160a01b031663188ec3566040518163ffffffff1660e01b815260040160206040518083038186803b15801561075c57600080fd5b505afa158015610770573d6000803e3d6000fd5b505050506040513d601f19601f8201168201806040525061079491908101906131c6565b9050816107b35760405162461bcd60e51b81526004016105af906138a5565b9091565b600a546001600160a01b031681565b6009546001600160a01b031681565b60006107df61193a565b90506107ea81610984565b6108065760405162461bcd60e51b81526004016105af9061373f565b600880546001600160a01b0319166001600160a01b0384169081179091556040517f0ee3c7edebc1b6525e2ecde5dee0d25becd16e7b855763eb620245092c3419ac90600090a25050565b600061085b61193a565b905061086681610984565b6108825760405162461bcd60e51b81526004016105af9061373f565b6010548214156108a45760405162461bcd60e51b81526004016105af906138f4565b50601055565b6008546001600160a01b031681565b600d5481565b60006108c9611a6b565b6108d1611b4d565b905090565b6108de611158565b6108fa5760405162461bcd60e51b81526004016105af9061373f565b806001600160a01b0381166109215760405162461bcd60e51b81526004016105af90613435565b6001600160a01b03821660009081526001602052604090205460ff16156109475761096e565b6001600160a01b0382166000908152600160208190526040909120805460ff191690911790555b5050565b600061097c611a6b565b6108d16109c4565b6001600160a01b031660009081526001602052604090205460ff1690565b600e5481565b600b5481565b60006109bc33858585611be7565b949350505050565b6000806109cf611e39565b9050610a0c6109ec60105460000383611e8290919063ffffffff16565b601054610a0090849063ffffffff611e9916565b9063ffffffff611ea916565b91505090565b610a1a611158565b610a365760405162461bcd60e51b81526004016105af9061373f565b6001600160a01b03811660009081526001602052604090205460ff16610a5b57610a7c565b6001600160a01b0381166000908152600160205260409020805460ff191690555b50565b60095460408051631006976960e11b815290516000926001600160a01b03169163200d2ed2916004808301926020929190829003018186803b158015610ac457600080fd5b505afa158015610ad8573d6000803e3d6000fd5b505050506040513d601f19601f82011682018060405250610afc9190810190613192565b6002811115610b0757fe5b14610b245760405162461bcd60e51b81526004016105af90613562565b600080610b2f61193e565b90925090508015801590610b4257508115155b610b5e5760405162461bcd60e51b81526004016105af906138d0565b336000610b71848463ffffffff611a3a16565b90506000610b966002610b8a888563ffffffff611eef16565b9063ffffffff611f1716565b6009549091506001600160a01b031663f4d6045884610bb3611f51565b610bbc85611f60565b6040518463ffffffff1660e01b8152600401610bda93929190613353565b600060405180830381600087803b158015610bf457600080fd5b505af1158015610c08573d6000803e3d6000fd5b5050600954600092506001600160a01b031690506319d3b88b85610c2a611f51565b6001878c6040518663ffffffff1660e01b8152600401610c4e95949392919061331a565b6040805180830381600087803b158015610c6757600080fd5b505af1158015610c7b573d6000803e3d6000fd5b505050506040513d601f19601f82011682018060405250610c9f919081019061327f565b509050610d5184610d4c87610d408b600760009054906101000a90046001600160a01b03166001600160a01b03166318160ddd6040518163ffffffff1660e01b815260040160206040518083038186803b158015610cfc57600080fd5b505afa158015610d10573d6000803e3d6000fd5b505050506040513d601f19601f82011682018060405250610d3491908101906131c6565b9063ffffffff611eef16565b9063ffffffff611a3a16565b611f8d565b610d5961202d565b610d6384826120f9565b50505050505050565b600181565b60006108d161235d565b6007546001600160a01b031681565b60006108d161240a565b610d9c611158565b610db85760405162461bcd60e51b81526004016105af9061373f565b600080546040516101009091046001600160a01b0316907f8be0079c531659141344cd1fd0a4f28419497f9722a3daafe3b4186f6b6457e0908390a360008054610100600160a81b0319169055565b600f5481565b60008111610e2d5760405162461bcd60e51b81526004016105af9061380d565b60095460408051631006976960e11b815290516000926001600160a01b03169163200d2ed2916004808301926020929190829003018186803b158015610e7257600080fd5b505afa158015610e86573d6000803e3d6000fd5b505050506040513d601f19601f82011682018060405250610eaa9190810190613192565b6002811115610eb557fe5b14610ed25760405162461bcd60e51b81526004016105af90613562565b610eda6110b3565b15610ef75760405162461bcd60e51b81526004016105af906135e5565b336000610f026124a4565b9050600080610f0f610683565b9092509050610f1e82846124a8565b6009546001600160a01b031663f4d6045885610f38611f51565b610f55610f506002610b8a898d63ffffffff611eef16565b611f60565b6040518463ffffffff1660e01b8152600401610f7393929190613353565b600060405180830381600087803b158015610f8d57600080fd5b505af1158015610fa1573d6000803e3d6000fd5b5050600954600092506001600160a01b031690506319d3b88b86610fc3611f51565b6001878b6040518663ffffffff1660e01b8152600401610fe795949392919061331a565b6040805180830381600087803b15801561100057600080fd5b505af1158015611014573d6000803e3d6000fd5b505050506040513d601f19601f82011682018060405250611038919081019061327f565b5090506110458587611f8d565b61104d61202d565b61105785826120f9565b505050505050565b600061106961193a565b905061107481610984565b6110905760405162461bcd60e51b81526004016105af9061373f565b50600a80546001600160a01b0319166001600160a01b0392909216919091179055565b6009546000906001600160a01b03166355f575106110cf611f51565b6040518263ffffffff1660e01b81526004016110eb91906132ed565b60c06040518083038186803b15801561110357600080fd5b505afa158015611117573d6000803e3d6000fd5b505050506040513d601f19601f8201168201806040525061113b9190810190613201565b60400151905090565b60005461010090046001600160a01b031690565b6000805461010090046001600160a01b031661117261193a565b6001600160a01b031614905090565b600061118b611a6b565b5060065490565b60065490565b60095460408051631006976960e11b815290516000926001600160a01b03169163200d2ed2916004808301926020929190829003018186803b1580156111dd57600080fd5b505afa1580156111f1573d6000803e3d6000fd5b505050506040513d601f19601f820116820180604052506112159190810190613192565b600281111561122057fe5b1461123d5760405162461bcd60e51b81526004016105af90613562565b3360008061124961193e565b9092509050801580159061125c57508115155b6112785760405162461bcd60e51b81526004016105af906138d0565b6007546040516370a0823160e01b815285916001600160a01b0316906370a08231906112a89033906004016132ed565b60206040518083038186803b1580156112c057600080fd5b505afa1580156112d4573d6000803e3d6000fd5b505050506040513d601f19601f820116820180604052506112f891908101906131c6565b10156113165760405162461bcd60e51b81526004016105af90613592565b6000611328838363ffffffff611a3a16565b905060006113c5600760009054906101000a90046001600160a01b03166001600160a01b03166318160ddd6040518163ffffffff1660e01b815260040160206040518083038186803b15801561137d57600080fd5b505afa158015611391573d6000803e3d6000fd5b505050506040513d601f19601f820116820180604052506113b591908101906131c6565b610d40888663ffffffff611eef16565b90506000600960009054906101000a90046001600160a01b03166001600160a01b0316634942f65f6040518163ffffffff1660e01b815260040160206040518083038186803b15801561141757600080fd5b505afa15801561142b573d6000803e3d6000fd5b505050506040513d601f19601f8201168201806040525061144f91908101906131c6565b9050611471611464838363ffffffff6124da16565b839063ffffffff6119ef16565b6009549092506001600160a01b031663f4d6045861148d611f51565b886114a6610f506002610b8a8a8a63ffffffff611eef16565b6040518463ffffffff1660e01b81526004016114c493929190613353565b600060405180830381600087803b1580156114de57600080fd5b505af11580156114f2573d6000803e3d6000fd5b50505050611500868861251c565b6009546000906001600160a01b03166319d3b88b8861151d611f51565b600288886040518663ffffffff1660e01b815260040161154195949392919061331a565b6040805180830381600087803b15801561155a57600080fd5b505af115801561156e573d6000803e3d6000fd5b505050506040513d601f19601f82011682018060405250611592919081019061327f565b50905061159d61202d565b6115a787826120f9565b5050505050505050565b60006115bb61193a565b90506115c681610984565b6115e25760405162461bcd60e51b81526004016105af9061373f565b50600655565b60006115f2611a6b565b6108d161240a565b60006108d1611b4d565b60105481565b8315611675576009546040516317a790f160e11b81526001600160a01b0390911690632f4f21e2906116429033908890600401613301565b600060405180830381600087803b15801561165c57600080fd5b505af1158015611670573d6000803e3d6000fd5b505050505b8215611688576116868383836109ae565b505b50505050565b60095460408051631006976960e11b815290516000926001600160a01b03169163200d2ed2916004808301926020929190829003018186803b1580156116d357600080fd5b505afa1580156116e7573d6000803e3d6000fd5b505050506040513d601f19601f8201168201806040525061170b9190810190613192565b600281111561171657fe5b146117335760405162461bcd60e51b81526004016105af90613562565b61173b61202d565b565b600080600061174a61193e565b9092509050801580159061175d57508115155b6117795760405162461bcd60e51b81526004016105af906138d0565b61067961066c828663ffffffff61257c16565b600061179661193a565b90506117a181610984565b6117bd5760405162461bcd60e51b81526004016105af9061373f565b600d548214156117df5760405162461bcd60e51b81526004016105af906138f4565b600d829055670de0b6b3a7640000829003600e556117fc826125a1565b600f555050565b600c5481565b60006109bc33858585612828565b600061182161193a565b905061182c81610984565b6118485760405162461bcd60e51b81526004016105af9061373f565b600b5482141561186a5760405162461bcd60e51b81526004016105af906138f4565b50600b55565b600061187a611a6b565b6108d161235d565b6007546001600160a01b031690565b83156118fc576009546040516317a790f160e11b81526001600160a01b0390911690632f4f21e2906118c99033908890600401613301565b600060405180830381600087803b1580156118e357600080fd5b505af11580156118f7573d6000803e3d6000fd5b505050505b821561168857611686838383611809565b611915611158565b6119315760405162461bcd60e51b81526004016105af9061373f565b610a7c81612a0a565b3390565b600080611949611a6b565b611951613114565b6009546001600160a01b03166355f5751061196a611f51565b6040518263ffffffff1660e01b815260040161198691906132ed565b60c06040518083038186803b15801561199e57600080fd5b505afa1580156119b2573d6000803e3d6000fd5b505050506040513d601f19601f820116820180604052506119d69190810190613201565b90506119e181612a96565b925080604001519150509091565b6000611a3183836040518060400160405280601e81526020017f536166654d6174683a207375627472616374696f6e206f766572666c6f770000815250612bb8565b90505b92915050565b600081611a5c611a5285670de0b6b3a7640000611f17565b6002855b0461257c565b81611a6357fe5b049392505050565b60095460408051631006976960e11b815290516000926001600160a01b03169163200d2ed2916004808301926020929190829003018186803b158015611ab057600080fd5b505afa158015611ac4573d6000803e3d6000fd5b505050506040513d601f19601f82011682018060405250611ae89190810190613192565b6002811115611af357fe5b14611afd5761173b565b6000611b076124a4565b9050600080611b14610683565b600254919350915083141580611b2c57506005548214155b80611b38575060025481115b15611b4857611b48838383612be4565b505050565b6000611b57613114565b6009546001600160a01b03166355f57510611b70611f51565b6040518263ffffffff1660e01b8152600401611b8c91906132ed565b60c06040518083038186803b158015611ba457600080fd5b505afa158015611bb8573d6000803e3d6000fd5b505050506040513d601f19601f82011682018060405250611bdc9190810190613201565b9050610a0c81612a96565b600080600960009054906101000a90046001600160a01b03166001600160a01b031663200d2ed26040518163ffffffff1660e01b815260040160206040518083038186803b158015611c3857600080fd5b505afa158015611c4c573d6000803e3d6000fd5b505050506040513d601f19601f82011682018060405250611c709190810190613192565b6002811115611c7b57fe5b14611c985760405162461bcd60e51b81526004016105af90613562565b6009546040516336a250cf60e21b81526001600160a01b039091169063da89433c90611cc8908790600401613397565b60206040518083038186803b158015611ce057600080fd5b505afa158015611cf4573d6000803e3d6000fd5b505050506040513d601f19601f82011682018060405250611d189190810190613172565b611d345760405162461bcd60e51b81526004016105af9061379f565b6000611d3f8561061d565b905080841015611d615760405162461bcd60e51b81526004016105af9061340e565b82611d6a6124a4565b1115611d885760405162461bcd60e51b81526004016105af90613774565b6009546000906001600160a01b03166319d3b88b88611da5611f51565b6002868b6040518663ffffffff1660e01b8152600401611dc995949392919061331a565b6040805180830381600087803b158015611de257600080fd5b505af1158015611df6573d6000803e3d6000fd5b505050506040513d601f19601f82011682018060405250611e1a919081019061327f565b509050611e2561202d565b611e2f87826120f9565b9695505050505050565b600080611e4a600260030154611f60565b90506000611e59610f5061235d565b9050611e7b82611e6f838263ffffffff612cf016565b9063ffffffff612d3616565b9250505090565b600081831315611e925781611a31565b5090919050565b600081831215611e925781611a31565b6000828201818312801590611ebe5750838112155b80611ed35750600083128015611ed357508381125b611a315760405162461bcd60e51b81526004016105af906136a8565b6000670de0b6b3a7640000611a5c611f078585611f17565b6002670de0b6b3a7640000611a56565b600082611f2657506000611a34565b82820282848281611f3357fe5b0414611a315760405162461bcd60e51b81526004016105af906136d3565b6009546001600160a01b031690565b60006001600160ff1b03821115611f895760405162461bcd60e51b81526004016105af906139af565b5090565b6007546040516340c10f1960e01b81526001600160a01b03909116906340c10f1990611fbf9085908590600401613301565b602060405180830381600087803b158015611fd957600080fd5b505af1158015611fed573d6000803e3d6000fd5b505050506040513d601f19601f820116820180604052506120119190810190613172565b61096e5760405162461bcd60e51b81526004016105af906135c0565b60095460408051631006976960e11b815290516000926001600160a01b03169163200d2ed2916004808301926020929190829003018186803b15801561207257600080fd5b505afa158015612086573d6000803e3d6000fd5b505050506040513d601f19601f820116820180604052506120aa9190810190613192565b60028111156120b557fe5b146120d25760405162461bcd60e51b81526004016105af90613562565b60006120dc6124a4565b90506000806120e9610683565b9092509050611b48838383612be4565b600954604080516345a15a0160e01b815290516000926001600160a01b0316916345a15a01916004808301926020929190829003018186803b15801561213e57600080fd5b505afa158015612152573d6000803e3d6000fd5b505050506040513d601f19601f8201168201806040525061217691908101906131c6565b9050811561221c5760095460405163f50c138b60e01b81526001600160a01b039091169063f50c138b906121b09086908590600401613301565b60206040518083038186803b1580156121c857600080fd5b505afa1580156121dc573d6000803e3d6000fd5b505050506040513d601f19601f820116820180604052506122009190810190613172565b61221c5760405162461bcd60e51b81526004016105af9061391e565b600954604051631eacda4160e31b81526001600160a01b039091169063f566d2089061224e9086908590600401613301565b60206040518083038186803b15801561226657600080fd5b505afa15801561227a573d6000803e3d6000fd5b505050506040513d601f19601f8201168201806040525061229e9190810190613172565b6122ba5760405162461bcd60e51b81526004016105af906134f9565b6009546001600160a01b031663f566d2086122d3611f51565b836040518363ffffffff1660e01b81526004016122f1929190613301565b60206040518083038186803b15801561230957600080fd5b505afa15801561231d573d6000803e3d6000fd5b505050506040513d601f19601f820116820180604052506123419190810190613172565b611b485760405162461bcd60e51b81526004016105af906137e9565b60008061236e600260030154611f60565b90506000612387600c5483612d7890919063ffffffff16565b905060006123a3612396612d9e565b849063ffffffff611ea916565b90506123c56123b8848463ffffffff611ea916565b829063ffffffff611e8216565b90506123e76123da848463ffffffff612cf016565b829063ffffffff611e9916565b90506124026123fd82600063ffffffff611e9916565b612da4565b935050505090565b6000612414613114565b6009546001600160a01b03166355f5751061242d611f51565b6040518263ffffffff1660e01b815260040161244991906132ed565b60c06040518083038186803b15801561246157600080fd5b505afa158015612475573d6000803e3d6000fd5b505050506040513d601f19601f820116820180604052506124999190810190613201565b9050610a0c81612dc6565b4290565b600254156124c85760405162461bcd60e51b81526004016105af90613644565b60025560055560006003819055600455565b6000611a3183836040518060400160405280601881526020017f536166654d6174683a206d6f64756c6f206279207a65726f0000000000000000815250612e08565b600754604051632770a7eb60e21b81526001600160a01b0390911690639dc29fac9061254e9085908590600401613301565b600060405180830381600087803b15801561256857600080fd5b505af1158015611057573d6000803e3d6000fd5b600082820183811015611a315760405162461bcd60e51b81526004016105af906134c2565b60008082136125c25760405162461bcd60e51b81526004016105af9061360d565b701d6329f1c35ca4bfabb9f56100000000008213156125f35760405162461bcd60e51b81526004016105af90613520565b60006012670de0b6b3a76400005b67016345785d8a000085136126305784600a0294506f01bb7635c5de48ef4ce5b7b41cc43db083039250612601565b678ac7230489e80000851261265f57600a850594506f01bb7635c5de48ef4ce5b7b41cc43db083019250612630565b670de0b6b3a764000085121561269c57612681856725b946ebc0b36173612d78565b94506ec097ce7bc90715b34b9f10000000008303925061265f565b6725b946ebc0b361738513156126d9576126be856725b946ebc0b36173612d36565b94506ec097ce7bc90715b34b9f10000000008301925061269c565b670de0b6b3a764000085141561270657806126f48483612e3c565b816126fb57fe5b05935050505061067e565b6725b946ebc0b3617385141561273d57806127218483612e3c565b8161272857fe5b05670de0b6b3a764000001935050505061067e565b938402936e4e16f927cdca7f15b39123f740f5d192909201916f0120e3b5b9ad8aa08cf16e980000000060008187016ec097ce7bc90715b34b9f10000000006f0120e3b5b9ad8aa08cf16e97ffffffff198901028161279857fe5b059050806002028501945060006ec097ce7bc90715b34b9f1000000000828302816127bf57fe5b05905060035b6ec097ce7bc90715b34b9f10000000008383020592508060ff1683600202816127ea57fe5b059690960195600201602760ff82161061280357612808565b6127c5565b846128138887612e3c565b8161281a57fe5b059998505050505050505050565b600080600960009054906101000a90046001600160a01b03166001600160a01b031663200d2ed26040518163ffffffff1660e01b815260040160206040518083038186803b15801561287957600080fd5b505afa15801561288d573d6000803e3d6000fd5b505050506040513d601f19601f820116820180604052506128b19190810190613192565b60028111156128bc57fe5b146128d95760405162461bcd60e51b81526004016105af90613562565b6009546040516336a250cf60e21b81526001600160a01b039091169063da89433c90612909908790600401613397565b60206040518083038186803b15801561292157600080fd5b505afa158015612935573d6000803e3d6000fd5b505050506040513d601f19601f820116820180604052506129599190810190613172565b6129755760405162461bcd60e51b81526004016105af9061379f565b60006129808561173d565b9050808411156129a25760405162461bcd60e51b81526004016105af9061340e565b826129ab6124a4565b11156129c95760405162461bcd60e51b81526004016105af90613774565b6009546000906001600160a01b03166319d3b88b886129e6611f51565b6001868b6040518663ffffffff1660e01b8152600401611dc995949392919061331a565b6001600160a01b038116612a305760405162461bcd60e51b81526004016105af9061347c565b600080546040516001600160a01b038085169361010090930416917f8be0079c531659141344cd1fd0a4f28419497f9722a3daafe3b4186f6b6457e091a3600080546001600160a01b0390921661010002610100600160a81b0319909216919091179055565b805160095460208301516040516324c374e760e21b81526000939284926001600160a01b039091169163930dd39c91612ad191600401613382565b60206040518083038186803b158015612ae957600080fd5b505afa158015612afd573d6000803e3d6000fd5b505050506040513d601f19601f82011682018060405250612b2191908101906131c6565b9050612b40612b338560600151611f60565b839063ffffffff612cf016565b9150612b76612b338560800151612b6a612b5d8860400151611f60565b859063ffffffff612d7816565b9063ffffffff612cf016565b9150612ba2612b338560a00151612b6a612b938860400151611f60565b6006549063ffffffff612d7816565b91506106796123fd83600063ffffffff611e9916565b60008184841115612bdc5760405162461bcd60e51b81526004016105af91906133bb565b505050900390565b600254612bf057611b48565b612bf8613114565b6009546001600160a01b03166355f57510612c11611f51565b6040518263ffffffff1660e01b8152600401612c2d91906132ed565b60c06040518083038186803b158015612c4557600080fd5b505afa158015612c59573d6000803e3d6000fd5b505050506040513d601f19601f82011682018060405250612c7d9190810190613201565b9050806040015160001415612c925750611b48565b600254821115612ca757612ca7818484612e86565b612cb2818486612e86565b7fc0f950314c1203122896795efe729e8208b4c58eb5d6f41c476f32c773250a5d6002604051612ce29190613a67565b60405180910390a150505050565b6000818303818312801590612d055750838113155b80612d1a5750600083128015612d1a57508381135b611a315760405162461bcd60e51b81526004016105af906139ff565b600080821215612d4d578160000391508260000392505b81612d69612d6385670de0b6b3a7640000612fe0565b84612e3c565b81612d7057fe5b059392505050565b6000670de0b6b3a7640000612d69612d908585612fe0565b670de0b6b3a7640000612e3c565b60045490565b600080821215611f895760405162461bcd60e51b81526004016105af906139d9565b604081015160009080612deb5760405162461bcd60e51b81526004016105af90613941565b6000612df684612a96565b9050610679818363ffffffff611a3a16565b60008183612e295760405162461bcd60e51b81526004016105af91906133bb565b50828481612e3357fe5b06949350505050565b6000808213612e5d5760405162461bcd60e51b81526004016105af90613671565b60008312612e7957612e728360028405611ea9565b9050611a34565b611a318360028405612cf0565b600254612ea55760405162461bcd60e51b81526004016105af90613941565b600254811015612ec75760405162461bcd60e51b81526004016105af9061386e565b6002548114612fca57600254600090612eeb90610f5090849063ffffffff6119ef16565b600a546004546003546005549394506000936001600160a01b0390931692635e035d9c9286929091612f1c90611f60565b6040518563ffffffff1660e01b8152600401612f3b94939291906133a0565b604080518083038186803b158015612f5257600080fd5b505afa158015612f66573d6000803e3d6000fd5b505050506040513d601f19601f82011682018060405250612f8a91908101906131de565b6004919091559050612fbf612fb0612fa3617080611f60565b839063ffffffff61304b16565b6006549063ffffffff611ea916565b600655505060028190555b6005829055612fd8836130af565b600355505050565b600082612fef57506000611a34565b826000191480156130035750600160ff1b82145b156130205760405162461bcd60e51b81526004016105af90613978565b8282028284828161302d57fe5b0514611a315760405162461bcd60e51b81526004016105af90613978565b60008161306a5760405162461bcd60e51b81526004016105af90613714565b8160001914801561307e5750600160ff1b83145b1561309b5760405162461bcd60e51b81526004016105af90613842565b60008284816130a657fe5b05949350505050565b6000806130be610f5084612dc6565b90506130de6130d1600260030154611f60565b829063ffffffff612cf016565b9392505050565b6040518060a0016040528060008152602001600081526020016000815260200160008152602001600081525090565b6040805160c08101909152600080825260208201908152602001600081526020016000815260200160008152602001600081525090565b60006020828403121561315c578081fd5b81356001600160a01b0381168114611a31578182fd5b600060208284031215613183578081fd5b81518015158114611a31578182fd5b6000602082840312156131a3578081fd5b8151611a3181613ac2565b6000602082840312156131bf578081fd5b5035919050565b6000602082840312156131d7578081fd5b5051919050565b600080604083850312156131f0578081fd5b505080516020909101519092909150565b600060c08284031215613212578081fd5b60405160c0810181811067ffffffffffffffff82111715613231578283fd5b60405282518152602083015161324681613ac2565b8060208301525060408301516040820152606083015160608201526080830151608082015260a083015160a08201528091505092915050565b600080604083850312156131f0578182fd5b6000806000606084860312156132a5578081fd5b505081359360208301359350604090920135919050565b600080600080608085870312156132d1578081fd5b5050823594602084013594506040840135936060013592509050565b6001600160a01b0391909116815260200190565b6001600160a01b03929092168252602082015260400190565b6001600160a01b0386811682528516602082015260a0810161333b85613ab7565b60408301526060820193909352608001529392505050565b6001600160a01b039384168152919092166020820152604081019190915260600190565b901515815260200190565b6020810161338f83613ab7565b825292915050565b90815260200190565b93845260208401929092526040830152606082015260800190565b6000602080835283518082850152825b818110156133e7578581018301518582016040015282016133cb565b818111156133f85783604083870101525b50601f01601f1916929092016040019392505050565b6020808252600d908201526c1c1c9a58d9481b1a5b5a5d1959609a1b604082015260600190565b60208082526027908201527f76616c69646174657320616e206164647265737320746861742069742069736e60408201526609dd081b9d5b1b60ca1b606082015260800190565b60208082526026908201527f4f776e61626c653a206e6577206f776e657220697320746865207a65726f206160408201526564647265737360d01b606082015260800190565b6020808252601b908201527f536166654d6174683a206164646974696f6e206f766572666c6f770000000000604082015260600190565b6020808252600d908201526c73656e64657220756e7361666560981b604082015260600190565b60208082526022908201527f6c6f6745206f6e6c7920616363657074732076203c3d2031653232202a203165604082015261062760f31b606082015260800190565b60208082526016908201527577726f6e672070657270657475616c2073746174757360501b604082015260600190565b602080825260149082015273736861726542616c616e636520746f6f206c6f7760601b604082015260600190565b6020808252600b908201526a1b5a5b9d0819985a5b195960aa1b604082015260600190565b6020808252600e908201526d706f6f6c206e6f7420656d70747960901b604082015260600190565b60208082526017908201527f6c6f6745206f66206e65676174697665206e756d626572000000000000000000604082015260600190565b602080825260139082015272185b1c9958591e481a5b9a5d1a585b1a5e9959606a1b604082015260600190565b6020808252601f908201527f726f756e6448616c665570206f6e6c7920737570706f7274732079203e203000604082015260600190565b6020808252601190820152706164646974696f6e206f766572666c6f7760781b604082015260600190565b60208082526021908201527f536166654d6174683a206d756c7469706c69636174696f6e206f766572666c6f6040820152607760f81b606082015260800190565b602080825260119082015270776469766973696f6e206279207a65726f60781b604082015260600190565b6020808252818101527f4f776e61626c653a2063616c6c6572206973206e6f7420746865206f776e6572604082015260600190565b602080825260119082015270191958591b1a5b9948195e18d959591959607a1b604082015260600190565b6020808252602a908201527f616d6f756e74206d75737420626520646976697369626c652062792074726164604082015269696e674c6f7453697a6560b01b606082015260800190565b6020808252600a9082015269616d6d20756e7361666560b01b604082015260600190565b6020808252818101527f616d6f756e74206d7573742062652067726561746572207468616e207a65726f604082015260600190565b602080825260129082015271776469766973696f6e206f766572666c6f7760701b604082015260600190565b6020808252601f908201527f74696d6520737465707320286e29206d75737420626520706f73697469766500604082015260600190565b60208082526011908201527034b73232bc10383934b1b29032b93937b960791b604082015260600190565b6020808252600a9082015269195b5c1d1e481c1bdbdb60b21b604082015260600190565b60208082526010908201526f6475706c6963617465642076616c756560801b604082015260600190565b602080825260099082015268696d20756e7361666560b81b604082015260600190565b6020808252601f908201527f66756e64696e6720696e697469616c697a6174696f6e20726571756972656400604082015260600190565b60208082526018908201527f776d756c7469706c69636174696f6e206f766572666c6f770000000000000000604082015260600190565b60208082526010908201526f75696e74323536206f766572666c6f7760801b604082015260600190565b6020808252600c908201526b696e74206f766572666c6f7760a01b604082015260600190565b6020808252601490820152737375627472616374696f6e206f766572666c6f7760601b604082015260600190565b600060a082019050825182526020830151602083015260408301516040830152606083015160608301526080830151608083015292915050565b81548152600182015460208201526002820154604082015260038201546060820152600490910154608082015260a00190565b61ffff91909116815260200190565b918252602082015260400190565b806003811061067e57fe5b60038110610a7c57600080fdfea264697066735822122006a7d1123160431477e679a052692ea431b7135edbce4930d033ff5d867d717164736f6c63430006030033",
  "source": "pragma solidity ^0.6.0;\npragma experimental ABIEncoderV2;\n\nimport \"./utility/Lockable.sol\";\nimport \"./utility/SafeMath.sol\";\nimport \"./utility/LibMathSigned.sol\";\nimport \"./utility/Address.sol\";\nimport \"./utility/Whitelist.sol\";\nimport \"./utility/Types.sol\";\nimport \"./TokenFactory.sol\";\nimport \"./interfaces/IAMM.sol\";\nimport \"./interfaces/IPerpetual.sol\";\nimport \"./interfaces/IPriceFeeder.sol\";\n\n/**\n * @title AMM contract\n */\n\ninterface IFundingCalculator {\n\n    function getAccumulatedFunding(int256, int256, int256, int256) external view returns (int256, int256);\n\n}\n\ncontract AMM is Lockable, Whitelist, IAMM {\n    using SafeMath for uint256;\n    using LibMathSigned for int256;\n    using Address for address;\n\n    // Version number\n    uint16 public constant version = 1;\n\n    uint256 private constant FUNDING_PERIOD = 28800; // 8 * 3600;\n    Types.FundingState private fundingState;\n\n    // Share token created by this contract.\n    IExpandedIERC20 public shareToken;\n    // Price feeder contract.\n    IPriceFeeder public priceFeeder;\n    // Perpetual contract.\n    IPerpetual public perpetual;\n\n    IFundingCalculator public fundingCalculator;\n\n    // Adjustable params\n    uint256 public updatePremiumPrize = 1000000000000000000; // 1\n\n    int256 public markPremiumLimit = 5000000000000000; // 0.5%\n\n    int256 public emaAlpha = 3327787021630616; // 2 / (600 + 1)\n    int256 public emaAlpha2 = 996672212978369384; // 10**18 - emaAlpha\n    int256 public emaAlpha2Ln = -3333336419758231; // ln(emaAlpha2)\n    int256 public fundingDampener = 500000000000000; // 0.05%\n    \n    event CreatedAMM();\n    event UpdateFundingRate(Types.FundingState fundingState);\n    event UpdatePriceFeeder(address indexed priceFeeder);\n\n    constructor(\n        string memory _poolName,\n        string memory _poolSymbol,\n        address _tokenFactoryAddress,\n        address _priceFeederAddress,\n        address _perpetualAddress\n    ) public nonReentrant() {\n        TokenFactory tf = TokenFactory(_tokenFactoryAddress);\n        shareToken = tf.createToken(_poolName, _poolSymbol, 18);\n\n        priceFeeder = IPriceFeeder(_priceFeederAddress);\n        perpetual = IPerpetual(_perpetualAddress);\n\n        addAddress(msg.sender);\n\n        emit CreatedAMM();\n    }\n\n    function setPriceFeeder(address _priceFeederAddress) external onlyWhitelisted() {\n        priceFeeder = IPriceFeeder(_priceFeederAddress);\n\n         emit UpdatePriceFeeder(_priceFeederAddress);\n    }\n\n    function setUpdatePremiumPrize(uint256 value) external onlyWhitelisted() {\n        require(value != updatePremiumPrize, \"duplicated value\");\n        updatePremiumPrize = value;\n    }\n\n    function setMarkPremiumLimit(int256 value) external onlyWhitelisted() {\n        require(value != markPremiumLimit, \"duplicated value\");\n        markPremiumLimit = value;\n    }\n\n    function setEmaAlpha(int256 value) external onlyWhitelisted() {\n        require(value != emaAlpha, \"duplicated value\");\n        emaAlpha = value;\n        emaAlpha2 = 10**18 - value;\n        emaAlpha2Ln = value.wln();\n    }\n\n    function setFundingDampener(int256 value) external onlyWhitelisted() {\n        require(value != fundingDampener, \"duplicated value\");\n        fundingDampener = value;\n    }\n\n    function setAccumulatedFundingPerContract(int256 value) external onlyWhitelisted() {\n        fundingState.accumulatedFundingPerContract = value;\n    }\n\n    function currentFundingRate() public returns (int256) {\n        _funding();\n        return lastFundingRate();\n    }\n\n    function lastFundingRate() public view returns (int256) {\n        int256 rate = _lastPremiumRate();\n        return rate.max(fundingDampener).add(rate.min(-fundingDampener));\n    }\n\n    function updateIndex() public {\n        require(perpetual.status() == Types.Status.NORMAL, \"wrong perpetual status\");\n        _forceFunding();\n    }\n\n    /**\n     * @dev Share token's ERC20 address.\n     */\n    function shareTokenAddress() public override view returns (address) {\n        return address(shareToken);\n    }\n\n    /**\n     * @dev Read the price from Oracle\n     */\n    function indexPrice()\n        public\n        override\n        view\n        returns (uint256 price, uint256 timestamp)\n    {\n        price = priceFeeder.getValue();\n        timestamp = priceFeeder.getTimestamp();\n\n        require(price != 0, \"index price error\");\n    }\n\n    function setFundingCalculator(address _fundingCalculatorAddress) external onlyWhitelisted() {\n        fundingCalculator = IFundingCalculator(_fundingCalculatorAddress);\n    }\n\n    function createPool(uint256 amount) public {\n        require(amount > 0, \"amount must be greater than zero\");\n        require(perpetual.status() == Types.Status.NORMAL, \"wrong perpetual status\");\n        require(positionSize() == 0, \"pool not empty\");\n\n        address trader = msg.sender;\n        uint256 blockTime = _getBlockTimestamp();\n        uint256 newIndexPrice;\n        uint256 newIndexTimestamp;\n        (newIndexPrice, newIndexTimestamp) = indexPrice();\n\n        _initFunding(newIndexPrice, blockTime);\n        perpetual.transferCollateral(trader, _tradingAccount(), (newIndexPrice.wmul(amount).mul(2).toInt256()));\n        (uint256 opened, ) = perpetual.tradePosition(\n            trader,\n            _tradingAccount(),\n            Types.Side.SHORT,\n            newIndexPrice,\n            amount\n        );\n        _mintShareTokenTo(trader, amount);\n\n        _forceFunding(); // x, y changed, so fair price changed. we need funding now\n        _mustSafe(trader, opened);\n    }\n\n    \n\n    function addLiquidity(uint256 amount) public {\n        require(perpetual.status() == Types.Status.NORMAL, \"wrong perpetual status\");\n\n        uint256 oldAvailableMargin;\n        uint256 oldPoolPositionSize;\n        (oldAvailableMargin, oldPoolPositionSize) = _currentXY();\n        require(oldPoolPositionSize != 0 && oldAvailableMargin != 0, \"empty pool\");\n\n        address trader = msg.sender;\n        uint256 price = oldAvailableMargin.wdiv(oldPoolPositionSize);\n\n        uint256 collateralAmount = amount.wmul(price).mul(2);\n        perpetual.transferCollateral(trader, _tradingAccount(), collateralAmount.toInt256());\n        (uint256 opened, ) = perpetual.tradePosition(trader, _tradingAccount(), Types.Side.SHORT, price, amount);\n\n        _mintShareTokenTo(trader, shareToken.totalSupply().wmul(amount).wdiv(oldPoolPositionSize));\n\n        _forceFunding(); // x, y changed, so fair price changed. we need funding now\n        _mustSafe(trader, opened);\n    }\n\n    function removeLiquidity(uint256 shareAmount) public {\n        require(perpetual.status() == Types.Status.NORMAL, \"wrong perpetual status\");\n\n        address trader = msg.sender;\n        uint256 oldAvailableMargin;\n        uint256 oldPoolPositionSize;\n        (oldAvailableMargin, oldPoolPositionSize) = _currentXY();\n        require(oldPoolPositionSize != 0 && oldAvailableMargin != 0, \"empty pool\");\n        require(shareToken.balanceOf(msg.sender) >= shareAmount, \"shareBalance too low\");\n        uint256 price = oldAvailableMargin.wdiv(oldPoolPositionSize);\n        uint256 amount = shareAmount.wmul(oldPoolPositionSize).wdiv(shareToken.totalSupply());\n        // align to lotSize\n        uint256 lotSize = perpetual.lotSize();\n        amount = amount.sub(amount.mod(lotSize));\n\n        perpetual.transferCollateral(_tradingAccount(), trader, (price.wmul(amount).mul(2)).toInt256());\n        _burnShareTokenFrom(trader, shareAmount);\n        (uint256 opened, ) = perpetual.tradePosition(trader, _tradingAccount(), Types.Side.LONG, price, amount);\n\n        _forceFunding(); // x, y changed, so fair price changed. we need funding now\n        _mustSafe(trader, opened);\n    }\n\n    /**\n     * @notice Pool's position size (y).\n     */\n    function positionSize() public view returns (uint256) {\n        return perpetual.positions(_tradingAccount()).size;\n    }\n\n    function currentAvailableMargin() public override returns (uint256) {\n        _funding();\n        return _lastAvailableMargin();\n    }\n\n    function getAvailableMargin() public view returns (uint256) {\n        return _lastAvailableMargin();\n    }\n\n    function currentFairPrice() public returns (uint256) {\n        _funding();\n        return _lastFairPrice();\n    }\n\n    function currentMarkPrice() public override returns (uint256) {\n        _funding();\n        return _lastMarkPrice();\n    }\n\n    function getMarkPrice() public view returns (uint256) {\n        return _lastMarkPrice();\n    }\n\n    function getFairPrice() public view returns (uint256) {\n        return _lastFairPrice();\n    }\n\n    function lastFundingState() public view returns (Types.FundingState memory) {\n        return fundingState;\n    }\n\n    function currentAccumulatedFundingPerContract() public override returns (int256) {\n        _funding();\n        return fundingState.accumulatedFundingPerContract;\n    }\n\n    function getAccumulatedFundingPerContract() public view returns (int256) {\n        return fundingState.accumulatedFundingPerContract;\n    }\n\n    function depositAndBuy(\n        uint256 depositAmount,\n        uint256 tradeAmount,\n        uint256 limitPrice,\n        uint256 deadline\n    )\n        public\n    {\n        if (depositAmount > 0) {\n            perpetual.depositFor(msg.sender, depositAmount);\n        }\n        if (tradeAmount > 0) {\n            buy(tradeAmount, limitPrice, deadline);\n        }\n    }\n\n    function depositAndSell(\n        uint256 depositAmount,\n        uint256 tradeAmount,\n        uint256 limitPrice,\n        uint256 deadline\n    )\n        public\n    {\n        if (depositAmount > 0) {\n            perpetual.depositFor(msg.sender, depositAmount);\n        }\n        if (tradeAmount > 0) {\n            sell(tradeAmount, limitPrice, deadline);\n        }\n    }\n\n    /**\n     * @dev Buy/long with AMM.\n     */\n    function buy(\n        uint256 amount,\n        uint256 limitPrice,\n        uint256 deadline\n    ) public returns (uint256) {\n        return _buyFrom(msg.sender, amount, limitPrice, deadline);\n    }\n\n    /**\n     * @dev Sell/short with AMM.\n     */\n    function sell(\n        uint256 amount,\n        uint256 limitPrice,\n        uint256 deadline\n    ) public returns (uint256) {\n        return _sellFrom(msg.sender, amount, limitPrice, deadline);\n    }\n\n    // INTERNAL FUCTIONS\n    function _funding() internal {\n        if (perpetual.status() != Types.Status.NORMAL) {\n            return;\n        }\n        uint256 blockTime = _getBlockTimestamp();\n        uint256 newIndexPrice;\n        uint256 newIndexTimestamp;\n        (newIndexPrice, newIndexTimestamp) = indexPrice();\n        if (\n            blockTime != fundingState.lastFundingTime || // condition 1\n            newIndexPrice != fundingState.lastIndexPrice || // condition 2, especially when updateIndex and buy/sell are in the same block\n            newIndexTimestamp > fundingState.lastFundingTime // condition 2\n        ) {\n            _forceFunding(blockTime, newIndexPrice, newIndexTimestamp);\n        }\n\n    } \n\n    function _lastMarkPrice() internal view returns (uint256) {\n        int256 index = fundingState.lastIndexPrice.toInt256();\n        int256 limit = index.wmul(markPremiumLimit);\n        int256 p = index.add(_lastEMAPremium());\n        p = p.min(index.add(limit));\n        p = p.max(index.sub(limit));\n        return p.max(0).toUint256();\n    }\n\n    function _lastEMAPremium() internal view returns (int256) {\n        return fundingState.lastEMAPremium;\n    }\n\n    function _forceFunding() internal {\n        require(perpetual.status() == Types.Status.NORMAL, \"wrong perpetual status\");\n        uint256 blockTime = _getBlockTimestamp();\n        uint256 newIndexPrice;\n        uint256 newIndexTimestamp;\n        (newIndexPrice, newIndexTimestamp) = indexPrice();\n        _forceFunding(blockTime, newIndexPrice, newIndexTimestamp);\n    }\n\n    function _tradingAccount() internal view returns (address) {\n        return address(perpetual);\n    }\n\n    function _forceFunding(uint256 blockTime, uint256 newIndexPrice, uint256 newIndexTimestamp) private {\n        if (fundingState.lastFundingTime == 0) {\n            // funding initialization required. but in this case, it's safe to just do nothing and return\n            return;\n        }\n        Types.PositionData memory account = perpetual.positions(_tradingAccount());\n        if (account.size == 0) {\n            // empty pool. it's safe to just do nothing and return\n            return;\n        }\n\n        if (newIndexTimestamp > fundingState.lastFundingTime) {\n            // the 1st update\n            _nextStateWithTimespan(account, newIndexPrice, newIndexTimestamp);\n        }\n        // the 2nd update;\n        _nextStateWithTimespan(account, newIndexPrice, blockTime);\n\n        emit UpdateFundingRate(fundingState);\n    }\n\n    function _lastPremiumRate() internal view returns (int256) {\n        int256 index = fundingState.lastIndexPrice.toInt256();\n        int256 rate = _lastMarkPrice().toInt256();\n        rate = rate.sub(index).wdiv(index);\n        return rate;\n    }\n\n    function _getBlockTimestamp() virtual internal view returns (uint256) {\n        // solium-disable-next-line security/no-block-members\n        return block.timestamp;\n    }\n\n    function _buyFrom(\n        address trader,\n        uint256 amount,\n        uint256 limitPrice,\n        uint256 deadline\n    )\n        internal\n        returns (uint256) {\n        require(perpetual.status() == Types.Status.NORMAL, \"wrong perpetual status\");\n        require(perpetual.isValidTradingLotSize(amount), \"amount must be divisible by tradingLotSize\");\n\n        uint256 price = getBuyPrice(amount);\n        require(limitPrice >= price, \"price limited\");\n        require(_getBlockTimestamp() <= deadline, \"deadline exceeded\");\n        (uint256 opened, ) = perpetual.tradePosition(trader, _tradingAccount(), Types.Side.LONG, price, amount);\n\n        _forceFunding(); // x, y changed, so fair price changed. we need funding now\n        _mustSafe(trader, opened);\n        return opened;\n    }\n\n    function _sellFrom(\n        address trader,\n        uint256 amount,\n        uint256 limitPrice,\n        uint256 deadline\n    ) internal returns (uint256) {\n        require(perpetual.status() == Types.Status.NORMAL, \"wrong perpetual status\");\n        require(perpetual.isValidTradingLotSize(amount), \"amount must be divisible by tradingLotSize\");\n\n        uint256 price = getSellPrice(amount);\n        require(limitPrice <= price, \"price limited\");\n        require(_getBlockTimestamp() <= deadline, \"deadline exceeded\");\n        (uint256 opened, ) = perpetual.tradePosition(trader, _tradingAccount(), Types.Side.SHORT, price, amount);\n\n        _forceFunding(); // x, y changed, so fair price changed. we need funding now\n        _mustSafe(trader, opened);\n        return opened;\n    }\n\n    function _mintShareTokenTo(address trader, uint256 amount) internal {\n        require(shareToken.mint(trader, amount), \"mint failed\");\n    }\n\n    function _burnShareTokenFrom(address trader, uint256 amount) internal {\n        shareToken.burn(trader, amount);\n    }\n\n    function getBuyPrice(uint256 amount) public returns (uint256 price) {\n        uint256 x;\n        uint256 y;\n        (x, y) = _currentXY();\n        require(y != 0 && x != 0, \"empty pool\");\n        return x.wdiv(y.sub(amount));\n    }\n\n    function getSellPrice(uint256 amount) public returns (uint256 price) {\n        uint256 x;\n        uint256 y;\n        (x, y) = _currentXY();\n        require(y != 0 && x != 0, \"empty pool\");\n        return x.wdiv(y.add(amount));\n    }\n\n    function _lastFairPrice() internal view returns (uint256) {\n        Types.PositionData memory account = perpetual.positions(_tradingAccount());\n        return _fairPriceFromPoolAccount(account);\n    }\n\n    function _currentXY() internal returns (uint256 x, uint256 y) {\n        _funding();\n        Types.PositionData memory account = perpetual.positions(_tradingAccount());\n        x = _availableMarginFromPoolAccount(account);\n        y = account.size;\n    }\n\n    function _mustSafe(address trader, uint256 opened) internal {\n        // perpetual.markPrice is a little different from ours\n        uint256 perpetualMarkPrice = perpetual.markPrice();\n        if (opened > 0) {\n            require(perpetual.isIMSafeWithPrice(trader, perpetualMarkPrice), \"im unsafe\");\n        }\n        require(perpetual.isSafeWithPrice(trader, perpetualMarkPrice), \"sender unsafe\");\n        require(perpetual.isSafeWithPrice(_tradingAccount(), perpetualMarkPrice), \"amm unsafe\");\n    }\n\n    function _nextStateWithTimespan(\n        Types.PositionData memory account,\n        uint256 newIndexPrice,\n        uint256 endTimestamp\n    ) private {\n        require(fundingState.lastFundingTime != 0, \"funding initialization required\");\n        require(endTimestamp >= fundingState.lastFundingTime, \"time steps (n) must be positive\");\n\n        // update ema\n        if (fundingState.lastFundingTime != endTimestamp) {\n            int256 timeDelta = endTimestamp.sub(fundingState.lastFundingTime).toInt256();\n            int256 acc;\n            (fundingState.lastEMAPremium, acc) = fundingCalculator.getAccumulatedFunding(\n                timeDelta,\n                fundingState.lastEMAPremium,\n                fundingState.lastPremium,\n                fundingState.lastIndexPrice.toInt256() // ema is according to the old index\n            );\n            fundingState.accumulatedFundingPerContract = fundingState.accumulatedFundingPerContract.add(\n                acc.div(FUNDING_PERIOD.toInt256())\n            );\n            fundingState.lastFundingTime = endTimestamp;\n        }\n        \n        // always update\n        fundingState.lastIndexPrice = newIndexPrice; // should update before premium()\n        fundingState.lastPremium = _premiumFromPoolAccount(account);\n    }\n\n    function _premiumFromPoolAccount(Types.PositionData memory account) internal view returns (int256) {\n        int256 p = _fairPriceFromPoolAccount(account).toInt256();\n        p = p.sub(fundingState.lastIndexPrice.toInt256());\n        return p;\n    }\n\n    function _fairPriceFromPoolAccount(Types.PositionData memory account) internal view returns (uint256) {\n        uint256 y = account.size;\n        require(y > 0, \"funding initialization required\");\n        uint256 x = _availableMarginFromPoolAccount(account);\n        return x.wdiv(y);\n    }\n\n    function _availableMarginFromPoolAccount(Types.PositionData memory account) internal view returns (uint256) {\n        int256 available = account.rawCollateral;\n        int256 socialLossPerContract = perpetual.socialLossPerContract(account.side);\n        available = available.sub(account.entryValue.toInt256());\n        available = available.sub(socialLossPerContract.wmul(account.size.toInt256()).sub(account.entrySocialLoss));\n        available = available.sub(\n            fundingState.accumulatedFundingPerContract.wmul(account.size.toInt256()).sub(account.entryFundingLoss)\n        );\n        return available.max(0).toUint256();\n    }\n\n    function _lastAvailableMargin() internal view returns (uint256) {\n        Types.PositionData memory account = perpetual.positions(_tradingAccount());\n        return _availableMarginFromPoolAccount(account);\n    }\n\n    function _initFunding(uint256 newIndexPrice, uint256 blockTime) private {\n        require(fundingState.lastFundingTime == 0, \"already initialized\");\n        fundingState.lastFundingTime = blockTime;\n        fundingState.lastIndexPrice = newIndexPrice;\n        fundingState.lastPremium = 0;\n        fundingState.lastEMAPremium = 0;\n    }\n\n\n}\n",
  "sourcePath": "/home/pisuthd/Desktop/elliptix/hotpotswap/core/contracts/AMM.sol",
  "compiler": {
    "name": "solc",
    "version": "0.6.3+commit.8dda9521.Emscripten.clang"
  },
  "schemaVersion": "3.2.0",
  "updatedAt": "2021-02-18T12:26:54.260Z",
  "networkType": "ethereum",
  "devdoc": {
    "methods": {
      "addAddress(address)": {
        "details": "adds a given address to the whitelist ",
        "params": {
          "_address": "address to add"
        }
      },
      "buy(uint256,uint256,uint256)": {
        "details": "Buy/long with AMM."
      },
      "indexPrice()": {
        "details": "Read the price from Oracle"
      },
      "isOwner()": {
        "details": "Returns true if the caller is the current owner."
      },
      "isWhitelisted(address)": {
        "details": "returns true if a given address is whitelisted, false if not ",
        "params": {
          "_address": "address to check "
        },
        "returns": {
          "_0": "true if the address is whitelisted, false if not"
        }
      },
      "owner()": {
        "details": "Returns the address of the current owner."
      },
      "removeAddress(address)": {
        "details": "removes a given address from the whitelist ",
        "params": {
          "_address": "address to remove"
        }
      },
      "renounceOwnership()": {
        "details": "Leaves the contract without owner. It will not be possible to call `onlyOwner` functions anymore. Can only be called by the current owner.     * NOTE: Renouncing ownership will leave the contract without an owner, thereby removing any functionality that is only available to the owner."
      },
      "sell(uint256,uint256,uint256)": {
        "details": "Sell/short with AMM."
      },
      "shareTokenAddress()": {
        "details": "Share token's ERC20 address."
      },
      "transferOwnership(address)": {
        "details": "Transfers ownership of the contract to a new account (`newOwner`). Can only be called by the current owner."
      }
    }
  },
  "userdoc": {
    "methods": {
      "positionSize()": {
        "notice": "Pool's position size (y)."
      }
    }
  }
}