{
    "contractName": "Burner",
    "abi": [
        {
            "inputs": [
                {
                    "internalType": "string",
                    "name": "_syntheticName",
                    "type": "string"
                },
                {
                    "internalType": "string",
                    "name": "_syntheticSymbol",
                    "type": "string"
                },
                {
                    "internalType": "address",
                    "name": "_chainlinkPriceFeedAddress",
                    "type": "address"
                },
                {
                    "internalType": "address",
                    "name": "_tokenFactoryAddress",
                    "type": "address"
                }
            ],
            "stateMutability": "nonpayable",
            "type": "constructor"
        },
        {
            "inputs": [
                {
                    "internalType": "address",
                    "name": "",
                    "type": "address"
                }
            ],
            "name": "acceptedTokens",
            "outputs": [
                {
                    "internalType": "bool",
                    "name": "",
                    "type": "bool"
                }
            ],
            "stateMutability": "view",
            "type": "function",
            "constant": true
        },
        {
            "inputs": [],
            "name": "guardInterval",
            "outputs": [
                {
                    "internalType": "uint256",
                    "name": "",
                    "type": "uint256"
                }
            ],
            "stateMutability": "view",
            "type": "function",
            "constant": true
        },
        {
            "inputs": [],
            "name": "tokenCurrency",
            "outputs": [
                {
                    "internalType": "contract IExpandedIERC20",
                    "name": "",
                    "type": "address"
                }
            ],
            "stateMutability": "view",
            "type": "function",
            "constant": true
        },
        {
            "inputs": [],
            "name": "version",
            "outputs": [
                {
                    "internalType": "uint16",
                    "name": "",
                    "type": "uint16"
                }
            ],
            "stateMutability": "view",
            "type": "function",
            "constant": true
        },
        {
            "inputs": [],
            "name": "getName",
            "outputs": [
                {
                    "internalType": "string",
                    "name": "",
                    "type": "string"
                }
            ],
            "stateMutability": "view",
            "type": "function",
            "constant": true
        },
        {
            "inputs": [],
            "name": "getSymbol",
            "outputs": [
                {
                    "internalType": "string",
                    "name": "",
                    "type": "string"
                }
            ],
            "stateMutability": "view",
            "type": "function",
            "constant": true
        },
        {
            "inputs": [
                {
                    "internalType": "address",
                    "name": "_address",
                    "type": "address"
                }
            ],
            "name": "isAccepted",
            "outputs": [
                {
                    "internalType": "bool",
                    "name": "",
                    "type": "bool"
                }
            ],
            "stateMutability": "view",
            "type": "function",
            "constant": true
        },
        {
            "inputs": [
                {
                    "internalType": "address",
                    "name": "tokenAddress",
                    "type": "address"
                },
                {
                    "internalType": "uint256",
                    "name": "amountOut",
                    "type": "uint256"
                },
                {
                    "internalType": "uint256",
                    "name": "maxAmountIn",
                    "type": "uint256"
                }
            ],
            "name": "mint",
            "outputs": [],
            "stateMutability": "nonpayable",
            "type": "function"
        },
        {
            "inputs": [
                {
                    "internalType": "uint256",
                    "name": "amountIn",
                    "type": "uint256"
                }
            ],
            "name": "calculateAmountOut",
            "outputs": [
                {
                    "internalType": "uint256",
                    "name": "",
                    "type": "uint256"
                }
            ],
            "stateMutability": "view",
            "type": "function",
            "constant": true
        },
        {
            "inputs": [
                {
                    "internalType": "uint256",
                    "name": "amountOut",
                    "type": "uint256"
                }
            ],
            "name": "calculateAmountIn",
            "outputs": [
                {
                    "internalType": "uint256",
                    "name": "",
                    "type": "uint256"
                }
            ],
            "stateMutability": "view",
            "type": "function",
            "constant": true
        },
        {
            "inputs": [],
            "name": "price",
            "outputs": [
                {
                    "internalType": "uint256",
                    "name": "",
                    "type": "uint256"
                }
            ],
            "stateMutability": "view",
            "type": "function",
            "constant": true
        },
        {
            "inputs": [],
            "name": "timestamp",
            "outputs": [
                {
                    "internalType": "uint256",
                    "name": "",
                    "type": "uint256"
                }
            ],
            "stateMutability": "view",
            "type": "function",
            "constant": true
        }
    ],
    "bytecode": "0x60806040523480156200001157600080fd5b5060405162001e5738038062001e578339818101604052620000379190810190620005d1565b60016000806101000a81548160ff021916908315150217905550620000616200037660201b60201c565b62000071620003c960201b60201c565b8360019080519060200190620000899291906200046c565b508260029080519060200190620000a29291906200046c565b5081600560006101000a81548173ffffffffffffffffffffffffffffffffffffffff021916908373ffffffffffffffffffffffffffffffffffffffff16021790555060008190508073ffffffffffffffffffffffffffffffffffffffff1663e8a0aed3868660126040518463ffffffff1660e01b8152600401620001299392919062000703565b602060405180830381600087803b1580156200014457600080fd5b505af115801562000159573d6000803e3d6000fd5b505050506040513d601f19601f820116820180604052506200017f9190810190620005a5565b600460006101000a81548173ffffffffffffffffffffffffffffffffffffffff021916908373ffffffffffffffffffffffffffffffffffffffff160217905550600160036000620001d5620003e560201b60201c565b73ffffffffffffffffffffffffffffffffffffffff1673ffffffffffffffffffffffffffffffffffffffff16815260200190815260200160002060006101000a81548160ff0219169083151502179055506001600360006200023c6200040160201b60201c565b73ffffffffffffffffffffffffffffffffffffffff1673ffffffffffffffffffffffffffffffffffffffff16815260200190815260200160002060006101000a81548160ff021916908315150217905550600160036000620002a36200041d60201b60201c565b73ffffffffffffffffffffffffffffffffffffffff1673ffffffffffffffffffffffffffffffffffffffff16815260200190815260200160002060006101000a81548160ff0219169083151502179055506001600360006200030a6200043460201b60201c565b73ffffffffffffffffffffffffffffffffffffffff1673ffffffffffffffffffffffffffffffffffffffff16815260200190815260200160002060006101000a81548160ff021916908315150217905550506200036c6200045060201b60201c565b50505050620008cb565b6000809054906101000a900460ff16620003c7576040517f08c379a0000000000000000000000000000000000000000000000000000000008152600401620003be906200074e565b60405180910390fd5b565b60008060006101000a81548160ff021916908315150217905550565b600073a0b86991c6218b36c1d19d4a2e9eb0ce3606eb48905090565b6000738e870d67f660d95d5be530380d0ec0bd388289e1905090565b60006e085d4780b73119b644ae5ecd22b376905090565b6000736b175474e89094c44da98b954eedeac495271d0f905090565b60016000806101000a81548160ff021916908315150217905550565b828054600181600116156101000203166002900490600052602060002090601f016020900481019282601f10620004af57805160ff1916838001178555620004e0565b82800160010185558215620004e0579182015b82811115620004df578251825591602001919060010190620004c2565b5b509050620004ef9190620004f3565b5090565b6200051891905b8082111562000514576000816000905550600101620004fa565b5090565b90565b6000815190506200052c8162000897565b92915050565b6000815190506200054381620008b1565b92915050565b600082601f8301126200055b57600080fd5b8151620005726200056c826200079e565b62000770565b915080825260208301602083018583830111156200058f57600080fd5b6200059c83828462000850565b50505092915050565b600060208284031215620005b857600080fd5b6000620005c88482850162000532565b91505092915050565b60008060008060808587031215620005e857600080fd5b600085015167ffffffffffffffff8111156200060357600080fd5b620006118782880162000549565b945050602085015167ffffffffffffffff8111156200062f57600080fd5b6200063d8782880162000549565b935050604062000650878288016200051b565b925050606062000663878288016200051b565b91505092959194509250565b6200067a816200083c565b82525050565b60006200068d82620007cb565b620006998185620007d6565b9350620006ab81856020860162000850565b620006b68162000886565b840191505092915050565b6000620006d0601f83620007d6565b91507f5265656e7472616e637947756172643a207265656e7472616e742063616c6c006000830152602082019050919050565b600060608201905081810360008301526200071f818662000680565b9050818103602083015262000735818562000680565b90506200074660408301846200066f565b949350505050565b600060208201905081810360008301526200076981620006c1565b9050919050565b6000604051905081810181811067ffffffffffffffff821117156200079457600080fd5b8060405250919050565b600067ffffffffffffffff821115620007b657600080fd5b601f19601f8301169050602081019050919050565b600081519050919050565b600082825260208201905092915050565b6000620007f4826200080f565b9050919050565b60006200080882620007e7565b9050919050565b600073ffffffffffffffffffffffffffffffffffffffff82169050919050565b600060ff82169050919050565b600062000849826200082f565b9050919050565b60005b838110156200087057808201518184015260208101905062000853565b8381111562000880576000848401525b50505050565b6000601f19601f8301169050919050565b620008a281620007e7565b8114620008ae57600080fd5b50565b620008bc81620007fb565b8114620008c857600080fd5b50565b61157c80620008db6000396000f3fe608060405234801561001057600080fd5b50600436106100b45760003560e01c80637048594b116100715780637048594b1461017d57806382dc4a051461019b5780639721f290146101cb578063a035b1fe146101fb578063b80777ea14610219578063e6f091f914610237576100b4565b806315070401146100b9578063156e29f6146100d757806317d7de7c146100f35780632ecc87031461011157806354fd4d501461012f5780636e1853261461014d575b600080fd5b6100c1610267565b6040516100ce919061128b565b60405180910390f35b6100f160048036036100ec9190810190610e7b565b610309565b005b6100fb61072b565b604051610108919061128b565b60405180910390f35b6101196107cd565b6040516101269190611388565b60405180910390f35b6101376107d4565b604051610144919061136d565b60405180910390f35b61016760048036036101629190810190610ef3565b6107d9565b6040516101749190611388565b60405180910390f35b610185610907565b6040516101929190611270565b60405180910390f35b6101b560048036036101b09190810190610e52565b61092d565b6040516101c29190611255565b60405180910390f35b6101e560048036036101e09190810190610ef3565b61094d565b6040516101f29190611388565b60405180910390f35b610203610a7b565b6040516102109190611388565b60405180910390f35b610221610b2b565b60405161022e9190611388565b60405180910390f35b610251600480360361024c9190810190610e52565b610bdb565b60405161025e9190611255565b60405180910390f35b606060028054600181600116156101000203166002900480601f0160208091040260200160405190810160405280929190818152602001828054600181600116156101000203166002900480156102ff5780601f106102d4576101008083540402835291602001916102ff565b820191906000526020600020905b8154815290600101906020018083116102e257829003601f168201915b5050505050905090565b610311610c31565b610319610c81565b6000600560009054906101000a900473ffffffffffffffffffffffffffffffffffffffff1673ffffffffffffffffffffffffffffffffffffffff1663feaf968c6040518163ffffffff1660e01b815260040160a06040518083038186803b15801561038357600080fd5b505afa158015610397573d6000803e3d6000fd5b505050506040513d601f19601f820116820180604052506103bb9190810190610f45565b5093505050506000429050620151808103821161040d576040517f08c379a0000000000000000000000000000000000000000000000000000000008152600401610404906112ad565b60405180910390fd5b60011515600360008773ffffffffffffffffffffffffffffffffffffffff1673ffffffffffffffffffffffffffffffffffffffff16815260200190815260200160002060009054906101000a900460ff161515146104a0576040517f08c379a0000000000000000000000000000000000000000000000000000000008152600401610497906112cd565b60405180910390fd5b600085905060008173ffffffffffffffffffffffffffffffffffffffff1663313ce5676040518163ffffffff1660e01b815260040160206040518083038186803b1580156104ed57600080fd5b505afa158015610501573d6000803e3d6000fd5b505050506040513d601f19601f820116820180604052506105259190810190610f1c565b90506000610532876107d9565b9050601282146105585761055582601203600a0a82610c9d90919063ffffffff16565b90505b8086101561059b576040517f08c379a00000000000000000000000000000000000000000000000000000000081526004016105929061130d565b60405180910390fd5b8273ffffffffffffffffffffffffffffffffffffffff166323b872dd3330846040518463ffffffff1660e01b81526004016105d8939291906111f5565b602060405180830381600087803b1580156105f257600080fd5b505af1158015610606573d6000803e3d6000fd5b505050506040513d601f19601f8201168201806040525061062a9190810190610eca565b50600460009054906101000a900473ffffffffffffffffffffffffffffffffffffffff1673ffffffffffffffffffffffffffffffffffffffff166340c10f1933896040518363ffffffff1660e01b815260040161068892919061122c565b602060405180830381600087803b1580156106a257600080fd5b505af11580156106b6573d6000803e3d6000fd5b505050506040513d601f19601f820116820180604052506106da9190810190610eca565b610719576040517f08c379a00000000000000000000000000000000000000000000000000000000081526004016107109061132d565b60405180910390fd5b5050505050610726610ce7565b505050565b606060018054600181600116156101000203166002900480601f0160208091040260200160405190810160405280929190818152602001828054600181600116156101000203166002900480156107c35780601f10610798576101008083540402835291602001916107c3565b820191906000526020600020905b8154815290600101906020018083116107a657829003601f168201915b5050505050905090565b6201518081565b600181565b600080600560009054906101000a900473ffffffffffffffffffffffffffffffffffffffff1673ffffffffffffffffffffffffffffffffffffffff1663feaf968c6040518163ffffffff1660e01b815260040160a06040518083038186803b15801561084457600080fd5b505afa158015610858573d6000803e3d6000fd5b505050506040513d601f19601f8201168201806040525061087c9190810190610f45565b509350505050600042905062015180810382116108ce576040517f08c379a00000000000000000000000000000000000000000000000000000000081526004016108c5906112ad565b60405180910390fd5b6108fe6305f5e1006108f06108e1610a7b565b87610d0390919063ffffffff16565b610c9d90919063ffffffff16565b92505050919050565b600460009054906101000a900473ffffffffffffffffffffffffffffffffffffffff1681565b60036020528060005260406000206000915054906101000a900460ff1681565b600080600560009054906101000a900473ffffffffffffffffffffffffffffffffffffffff1673ffffffffffffffffffffffffffffffffffffffff1663feaf968c6040518163ffffffff1660e01b815260040160a06040518083038186803b1580156109b857600080fd5b505afa1580156109cc573d6000803e3d6000fd5b505050506040513d601f19601f820116820180604052506109f09190810190610f45565b50935050505060004290506201518081038211610a42576040517f08c379a0000000000000000000000000000000000000000000000000000000008152600401610a39906112ad565b60405180910390fd5b610a726305f5e100610a64610a55610a7b565b87610c9d90919063ffffffff16565b610d0390919063ffffffff16565b92505050919050565b600080600560009054906101000a900473ffffffffffffffffffffffffffffffffffffffff1673ffffffffffffffffffffffffffffffffffffffff1663feaf968c6040518163ffffffff1660e01b815260040160a06040518083038186803b158015610ae657600080fd5b505afa158015610afa573d6000803e3d6000fd5b505050506040513d601f19601f82011682018060405250610b1e9190810190610f45565b5050509150508091505090565b600080600560009054906101000a900473ffffffffffffffffffffffffffffffffffffffff1673ffffffffffffffffffffffffffffffffffffffff1663feaf968c6040518163ffffffff1660e01b815260040160a06040518083038186803b158015610b9657600080fd5b505afa158015610baa573d6000803e3d6000fd5b505050506040513d601f19601f82011682018060405250610bce9190810190610f45565b5093505050508091505090565b6000600360008373ffffffffffffffffffffffffffffffffffffffff1673ffffffffffffffffffffffffffffffffffffffff16815260200190815260200160002060009054906101000a900460ff169050919050565b6000809054906101000a900460ff16610c7f576040517f08c379a0000000000000000000000000000000000000000000000000000000008152600401610c769061134d565b60405180910390fd5b565b60008060006101000a81548160ff021916908315150217905550565b6000610cdf83836040518060400160405280601a81526020017f536166654d6174683a206469766973696f6e206279207a65726f000000000000815250610d73565b905092915050565b60016000806101000a81548160ff021916908315150217905550565b600080831415610d165760009050610d6d565b6000828402905082848281610d2757fe5b0414610d68576040517f08c379a0000000000000000000000000000000000000000000000000000000008152600401610d5f906112ed565b60405180910390fd5b809150505b92915050565b60008083118290610dba576040517f08c379a0000000000000000000000000000000000000000000000000000000008152600401610db1919061128b565b60405180910390fd5b506000838581610dc657fe5b049050809150509392505050565b600081359050610de3816114d3565b92915050565b600081519050610df8816114ea565b92915050565b600081519050610e0d81611501565b92915050565b600081359050610e2281611518565b92915050565b600081519050610e3781611518565b92915050565b600081519050610e4c8161152f565b92915050565b600060208284031215610e6457600080fd5b6000610e7284828501610dd4565b91505092915050565b600080600060608486031215610e9057600080fd5b6000610e9e86828701610dd4565b9350506020610eaf86828701610e13565b9250506040610ec086828701610e13565b9150509250925092565b600060208284031215610edc57600080fd5b6000610eea84828501610de9565b91505092915050565b600060208284031215610f0557600080fd5b6000610f1384828501610e13565b91505092915050565b600060208284031215610f2e57600080fd5b6000610f3c84828501610e28565b91505092915050565b600080600080600060a08688031215610f5d57600080fd5b6000610f6b88828901610e3d565b9550506020610f7c88828901610dfe565b9450506040610f8d88828901610e28565b9350506060610f9e88828901610e28565b9250506080610faf88828901610e3d565b9150509295509295909350565b610fc581611435565b82525050565b610fd4816113bf565b82525050565b610fe3816113d1565b82525050565b610ff281611447565b82525050565b6000611003826113a3565b61100d81856113ae565b935061101d81856020860161148f565b611026816114c2565b840191505092915050565b600061103e6019836113ae565b91507f50726963652046656564206973206e6f74206163746976652e000000000000006000830152602082019050919050565b600061107e601a836113ae565b91507f496e76616c6964206261736520746f6b656e20616464726573730000000000006000830152602082019050919050565b60006110be6021836113ae565b91507f536166654d6174683a206d756c7469706c69636174696f6e206f766572666c6f60008301527f77000000000000000000000000000000000000000000000000000000000000006020830152604082019050919050565b60006111246014836113ae565b91507f457863656564696e67206d617820616d6f756e740000000000000000000000006000830152602082019050919050565b6000611164601f836113ae565b91507f4d696e74696e672073796e74686574696320746f6b656e73206661696c6564006000830152602082019050919050565b60006111a4601f836113ae565b91507f5265656e7472616e637947756172643a207265656e7472616e742063616c6c006000830152602082019050919050565b6111e0816113e7565b82525050565b6111ef81611415565b82525050565b600060608201905061120a6000830186610fbc565b6112176020830185610fcb565b61122460408301846111e6565b949350505050565b60006040820190506112416000830185610fbc565b61124e60208301846111e6565b9392505050565b600060208201905061126a6000830184610fda565b92915050565b60006020820190506112856000830184610fe9565b92915050565b600060208201905081810360008301526112a58184610ff8565b905092915050565b600060208201905081810360008301526112c681611031565b9050919050565b600060208201905081810360008301526112e681611071565b9050919050565b60006020820190508181036000830152611306816110b1565b9050919050565b6000602082019050818103600083015261132681611117565b9050919050565b6000602082019050818103600083015261134681611157565b9050919050565b6000602082019050818103600083015261136681611197565b9050919050565b600060208201905061138260008301846111d7565b92915050565b600060208201905061139d60008301846111e6565b92915050565b600081519050919050565b600082825260208201905092915050565b60006113ca826113f5565b9050919050565b60008115159050919050565b6000819050919050565b600061ffff82169050919050565b600073ffffffffffffffffffffffffffffffffffffffff82169050919050565b6000819050919050565b600069ffffffffffffffffffff82169050919050565b60006114408261146b565b9050919050565b600061145282611459565b9050919050565b6000611464826113f5565b9050919050565b60006114768261147d565b9050919050565b6000611488826113f5565b9050919050565b60005b838110156114ad578082015181840152602081019050611492565b838111156114bc576000848401525b50505050565b6000601f19601f8301169050919050565b6114dc816113bf565b81146114e757600080fd5b50565b6114f3816113d1565b81146114fe57600080fd5b50565b61150a816113dd565b811461151557600080fd5b50565b61152181611415565b811461152c57600080fd5b50565b6115388161141f565b811461154357600080fd5b5056fea2646970667358221220cf281c7b4f22fea9ac8d1ca666f9912a8ff87246cdd76e2d069f536a5ad3703c64736f6c63430006030033",
    "source": "pragma solidity ^0.6.0;\npragma experimental ABIEncoderV2;\n\nimport \"./utility/Lockable.sol\";\nimport \"./utility/SafeMath.sol\";\nimport \"./utility/Address.sol\";\nimport \"./utility/AddressBook.sol\";\nimport \"./interfaces/IAggregatorV3.sol\";\nimport \"./interfaces/IERC20.sol\";\nimport \"./interfaces/IBurner.sol\";\nimport \"./TokenFactory.sol\";\n\n/**\n * @title Burner contract\n */\n\n\n\ncontract Burner is Lockable, AddressBook, IBurner {\n    using SafeMath for uint256;\n    using Address for address;\n\n    /**\n     * @dev version number\n     */\n    uint16 public constant version = 1;\n\n    // Max duration since the latest timestamp identified by Oracle \n    uint constant public guardInterval = 86400;\n\n    string private name;\n    string private symbol;\n    // Allowed ERC-20 tokens to be burnt\n    mapping(address => bool) public acceptedTokens;\n    // Synthetic token created by this contract.\n    IExpandedIERC20 public tokenCurrency;\n    // Chainlink's Fiat Currency price feed (JPY/USD, GBP/USD, EUR/USD)\n    IAggregatorV3 internal priceFeed;\n\n    constructor(\n        string memory _syntheticName,\n        string memory _syntheticSymbol,\n        address _chainlinkPriceFeedAddress,\n        address _tokenFactoryAddress\n    ) public nonReentrant() {\n\n        name = _syntheticName;\n        symbol = _syntheticSymbol;\n\n        priceFeed = IAggregatorV3(_chainlinkPriceFeedAddress);\n        TokenFactory tf = TokenFactory(_tokenFactoryAddress);\n        tokenCurrency = tf.createToken(_syntheticName, _syntheticSymbol, 18);\n\n        // Setup stablecoins to be burnt\n        acceptedTokens[_getAddressUSDC()] = true;\n        acceptedTokens[_getAddressPAX()] = true;\n        acceptedTokens[_getAddressTUSD()] = true;\n        acceptedTokens[_getAddressDAI()] = true;\n    }\n\n    function getName() public view override returns (string memory) {\n        return name;\n    }\n\n    function getSymbol() public view override returns (string memory) {\n        return symbol;\n    }\n\n    /**\n     * @dev Check if the given token address is allowed to be burnt\n     * @param _address Token address\n     */\n    function isAccepted(address _address) external view returns (bool) {\n        return acceptedTokens[_address];\n    }\n\n    /**\n     * @dev Mint corresponding synthetic tokens\n     */\n    function mint(\n        address tokenAddress,\n        uint256 amountOut,\n        uint256 maxAmountIn\n        )\n        public\n        nonReentrant()\n        onlyLatest()\n    {\n        require(acceptedTokens[tokenAddress] == true, \"Invalid base token address\");\n        IToken baseToken = IToken(tokenAddress);\n\n        uint256 decimals = baseToken.decimals();\n\n        uint256 amountIn = calculateAmountIn(amountOut);\n        if (decimals != 18) {\n            amountIn = amountIn.div(10**(18-decimals));\n        }\n\n        require(maxAmountIn >= amountIn, \"Exceeding max amount\");\n\n        // Transfer tokens to this contract from caller and mint corresponding synthetic tokens to the caller's address.\n        // FIXME: Use safeTransferFrom()\n        baseToken.transferFrom(msg.sender, address(this), amountIn);\n        require(tokenCurrency.mint(msg.sender, amountOut), \"Minting synthetic tokens failed\");\n\n    }\n\n    /**\n     * @dev Calculate output amount\n     */\n    function calculateAmountOut(\n        uint256 amountIn\n    ) public view onlyLatest() returns (uint256) {\n        return amountIn.div(price()).mul(1e8);\n    }\n\n    /**\n     * @dev Calculate input amount\n     */\n    function calculateAmountIn(\n        uint256 amountOut\n    ) public view onlyLatest() returns (uint256) {\n        return amountOut.mul(price()).div(1e8);\n    }\n\n    /**\n     * @dev Returns the latest price\n     */\n    function price() public view returns (uint256) {\n        (\n            // uint80 roundID, \n            ,int latestPrice,,,\n            // uint startedAt,\n            // uint timeStamp,\n            // uint80 answeredInRound\n        ) = priceFeed.latestRoundData();\n        return uint256(latestPrice);\n    }\n\n    /**\n     * @dev Returns the latest timestamp\n     */\n    function timestamp() public view returns (uint) {\n        (\n         ,,,uint latestTimeStamp,\n        ) = priceFeed.latestRoundData();\n        return latestTimeStamp;\n    }\n\n\n    modifier onlyLatest() {\n        (\n         ,,,uint latestTimeStamp,\n        ) = priceFeed.latestRoundData();\n        uint currentTimestamp = block.timestamp;\n        require(latestTimeStamp > (currentTimestamp - guardInterval) , \"Price Feed is not active.\");\n        _;\n    }\n\n}\n",
    "sourcePath": "/home/pisuthd/Desktop/elliptix/chainlink-synth/core/contracts/Burner.sol",
    "compiler": {
        "name": "solc",
        "version": "0.6.3+commit.8dda9521.Emscripten.clang"
    },
    "schemaVersion": "3.2.0",
    "updatedAt": "2021-01-11T15:01:59.466Z",
    "networkType": "ethereum",
    "devdoc": {
        "methods": {
            "calculateAmountIn(uint256)": {
                "details": "Calculate input amount"
            },
            "calculateAmountOut(uint256)": {
                "details": "Calculate output amount"
            },
            "isAccepted(address)": {
                "details": "Check if the given token address is allowed to be burnt",
                "params": {
                    "_address": "Token address"
                }
            },
            "mint(address,uint256,uint256)": {
                "details": "Mint corresponding synthetic tokens"
            },
            "price()": {
                "details": "Returns the latest price"
            },
            "timestamp()": {
                "details": "Returns the latest timestamp"
            }
        },
        "title": "Burner contract"
    },
    "userdoc": {
        "methods": {}
    }
}