{
  "contractName": "Registry",
  "abi": [
    {
      "inputs": [
        {
          "internalType": "address",
          "name": "_tokenFactoryAddress",
          "type": "address"
        }
      ],
      "stateMutability": "nonpayable",
      "type": "constructor"
    },
    {
      "anonymous": false,
      "inputs": [
        {
          "indexed": true,
          "internalType": "address",
          "name": "syntheticToken",
          "type": "address"
        }
      ],
      "name": "DisabledSynthetic",
      "type": "event"
    },
    {
      "anonymous": false,
      "inputs": [
        {
          "indexed": true,
          "internalType": "address",
          "name": "syntheticToken",
          "type": "address"
        }
      ],
      "name": "EnabledSynthetic",
      "type": "event"
    },
    {
      "anonymous": false,
      "inputs": [
        {
          "indexed": true,
          "internalType": "address",
          "name": "previousOwner",
          "type": "address"
        },
        {
          "indexed": true,
          "internalType": "address",
          "name": "newOwner",
          "type": "address"
        }
      ],
      "name": "OwnershipTransferred",
      "type": "event"
    },
    {
      "inputs": [
        {
          "internalType": "address",
          "name": "_address",
          "type": "address"
        }
      ],
      "name": "addAddress",
      "outputs": [],
      "stateMutability": "nonpayable",
      "type": "function"
    },
    {
      "inputs": [],
      "name": "isOwner",
      "outputs": [
        {
          "internalType": "bool",
          "name": "",
          "type": "bool"
        }
      ],
      "stateMutability": "view",
      "type": "function",
      "constant": true
    },
    {
      "inputs": [
        {
          "internalType": "address",
          "name": "_address",
          "type": "address"
        }
      ],
      "name": "isWhitelisted",
      "outputs": [
        {
          "internalType": "bool",
          "name": "",
          "type": "bool"
        }
      ],
      "stateMutability": "view",
      "type": "function",
      "constant": true
    },
    {
      "inputs": [],
      "name": "owner",
      "outputs": [
        {
          "internalType": "address",
          "name": "",
          "type": "address"
        }
      ],
      "stateMutability": "view",
      "type": "function",
      "constant": true
    },
    {
      "inputs": [
        {
          "internalType": "address",
          "name": "_address",
          "type": "address"
        }
      ],
      "name": "removeAddress",
      "outputs": [],
      "stateMutability": "nonpayable",
      "type": "function"
    },
    {
      "inputs": [],
      "name": "renounceOwnership",
      "outputs": [],
      "stateMutability": "nonpayable",
      "type": "function"
    },
    {
      "inputs": [
        {
          "internalType": "uint256",
          "name": "",
          "type": "uint256"
        }
      ],
      "name": "syntheticArray",
      "outputs": [
        {
          "internalType": "address",
          "name": "",
          "type": "address"
        }
      ],
      "stateMutability": "view",
      "type": "function",
      "constant": true
    },
    {
      "inputs": [],
      "name": "syntheticCount",
      "outputs": [
        {
          "internalType": "uint256",
          "name": "",
          "type": "uint256"
        }
      ],
      "stateMutability": "view",
      "type": "function",
      "constant": true
    },
    {
      "inputs": [
        {
          "internalType": "address",
          "name": "",
          "type": "address"
        }
      ],
      "name": "synthetics",
      "outputs": [
        {
          "internalType": "bool",
          "name": "",
          "type": "bool"
        }
      ],
      "stateMutability": "view",
      "type": "function",
      "constant": true
    },
    {
      "inputs": [
        {
          "internalType": "address",
          "name": "newOwner",
          "type": "address"
        }
      ],
      "name": "transferOwnership",
      "outputs": [],
      "stateMutability": "nonpayable",
      "type": "function"
    },
    {
      "inputs": [
        {
          "internalType": "address[]",
          "name": "_synthetics",
          "type": "address[]"
        }
      ],
      "name": "isSynthetic",
      "outputs": [
        {
          "internalType": "bool",
          "name": "isOk",
          "type": "bool"
        }
      ],
      "stateMutability": "view",
      "type": "function",
      "constant": true
    },
    {
      "inputs": [],
      "name": "syntheticLength",
      "outputs": [
        {
          "internalType": "uint256",
          "name": "",
          "type": "uint256"
        }
      ],
      "stateMutability": "view",
      "type": "function",
      "constant": true
    },
    {
      "inputs": [
        {
          "internalType": "address",
          "name": "_synthetic",
          "type": "address"
        }
      ],
      "name": "enableSynthetic",
      "outputs": [],
      "stateMutability": "nonpayable",
      "type": "function"
    },
    {
      "inputs": [
        {
          "internalType": "address",
          "name": "_synthetic",
          "type": "address"
        }
      ],
      "name": "disableSynthetic",
      "outputs": [],
      "stateMutability": "nonpayable",
      "type": "function"
    }
  ],
  "bytecode": "0x60806040523480156200001157600080fd5b506040516200190938038062001909833981810160405260208110156200003757600080fd5b810190808051906020019092919050505060016000806101000a81548160ff021916908315150217905550600062000074620001b160201b60201c565b905080600060016101000a81548173ffffffffffffffffffffffffffffffffffffffff021916908373ffffffffffffffffffffffffffffffffffffffff1602179055508073ffffffffffffffffffffffffffffffffffffffff16600073ffffffffffffffffffffffffffffffffffffffff167f8be0079c531659141344cd1fd0a4f28419497f9722a3daafe3b4186f6b6457e060405160405180910390a35062000123620001b960201b60201c565b620001336200023d60201b60201c565b600062000145620001b160201b60201c565b905081600560006101000a81548173ffffffffffffffffffffffffffffffffffffffff021916908373ffffffffffffffffffffffffffffffffffffffff16021790555062000199816200025960201b60201c565b50620001aa6200041860201b60201c565b506200049a565b600033905090565b6000809054906101000a900460ff166200023b576040517f08c379a000000000000000000000000000000000000000000000000000000000815260040180806020018281038252601f8152602001807f5265656e7472616e637947756172643a207265656e7472616e742063616c6c0081525060200191505060405180910390fd5b565b60008060006101000a81548160ff021916908315150217905550565b620002696200043460201b60201c565b620002dc576040517f08c379a00000000000000000000000000000000000000000000000000000000081526004018080602001828103825260208152602001807f4f776e61626c653a2063616c6c6572206973206e6f7420746865206f776e657281525060200191505060405180910390fd5b600073ffffffffffffffffffffffffffffffffffffffff168173ffffffffffffffffffffffffffffffffffffffff16141562000364576040517f08c379a0000000000000000000000000000000000000000000000000000000008152600401808060200182810382526027815260200180620018e26027913960400191505060405180910390fd5b600160008273ffffffffffffffffffffffffffffffffffffffff1673ffffffffffffffffffffffffffffffffffffffff16815260200190815260200160002060009054906101000a900460ff1615620003bd5762000415565b60018060008373ffffffffffffffffffffffffffffffffffffffff1673ffffffffffffffffffffffffffffffffffffffff16815260200190815260200160002060006101000a81548160ff0219169083151502179055505b50565b60016000806101000a81548160ff021916908315150217905550565b60008060019054906101000a900473ffffffffffffffffffffffffffffffffffffffff1673ffffffffffffffffffffffffffffffffffffffff166200047e620001b160201b60201c565b73ffffffffffffffffffffffffffffffffffffffff1614905090565b61143880620004aa6000396000f3fe608060405234801561001057600080fd5b50600436106100ea5760003560e01c80638da5cb5b1161008c578063a54fcfc111610066578063a54fcfc114610325578063c3afcf5614610393578063e4f035e4146103d7578063f2fde38b14610468576100ea565b80638da5cb5b1461025d5780638f32d59b146102a7578063a50ec15c146102c9576100ea565b80633af32abf116100c85780633af32abf1461016f5780634ba79dfe146101cb57806350e6fd981461020f578063715018a614610253576100ea565b806305a4741e146100ef5780631c8d7aab1461010d57806338eada1c1461012b575b600080fd5b6100f76104ac565b6040518082815260200191505060405180910390f35b6101156104b2565b6040518082815260200191505060405180910390f35b61016d6004803603602081101561014157600080fd5b81019080803573ffffffffffffffffffffffffffffffffffffffff1690602001909291905050506104bf565b005b6101b16004803603602081101561018557600080fd5b81019080803573ffffffffffffffffffffffffffffffffffffffff169060200190929190505050610671565b604051808215151515815260200191505060405180910390f35b61020d600480360360208110156101e157600080fd5b81019080803573ffffffffffffffffffffffffffffffffffffffff1690602001909291905050506106c7565b005b6102516004803603602081101561022557600080fd5b81019080803573ffffffffffffffffffffffffffffffffffffffff1690602001909291905050506107f3565b005b61025b6109fa565b005b610265610b34565b604051808273ffffffffffffffffffffffffffffffffffffffff1673ffffffffffffffffffffffffffffffffffffffff16815260200191505060405180910390f35b6102af610b5d565b604051808215151515815260200191505060405180910390f35b61030b600480360360208110156102df57600080fd5b81019080803573ffffffffffffffffffffffffffffffffffffffff169060200190929190505050610bbb565b604051808215151515815260200191505060405180910390f35b6103516004803603602081101561033b57600080fd5b8101908080359060200190929190505050610bdb565b604051808273ffffffffffffffffffffffffffffffffffffffff1673ffffffffffffffffffffffffffffffffffffffff16815260200191505060405180910390f35b6103d5600480360360208110156103a957600080fd5b81019080803573ffffffffffffffffffffffffffffffffffffffff169060200190929190505050610c17565b005b61044e600480360360208110156103ed57600080fd5b810190808035906020019064010000000081111561040a57600080fd5b82018360208201111561041c57600080fd5b8035906020019184602083028401116401000000008311171561043e57600080fd5b9091929391929390505050610e30565b604051808215151515815260200191505060405180910390f35b6104aa6004803603602081101561047e57600080fd5b81019080803573ffffffffffffffffffffffffffffffffffffffff169060200190929190505050610edd565b005b60035481565b6000600280549050905090565b6104c7610b5d565b610539576040517f08c379a00000000000000000000000000000000000000000000000000000000081526004018080602001828103825260208152602001807f4f776e61626c653a2063616c6c6572206973206e6f7420746865206f776e657281525060200191505060405180910390fd5b600073ffffffffffffffffffffffffffffffffffffffff168173ffffffffffffffffffffffffffffffffffffffff1614156105bf576040517f08c379a00000000000000000000000000000000000000000000000000000000081526004018080602001828103825260278152602001806113b66027913960400191505060405180910390fd5b600160008273ffffffffffffffffffffffffffffffffffffffff1673ffffffffffffffffffffffffffffffffffffffff16815260200190815260200160002060009054906101000a900460ff16156106165761066e565b60018060008373ffffffffffffffffffffffffffffffffffffffff1673ffffffffffffffffffffffffffffffffffffffff16815260200190815260200160002060006101000a81548160ff0219169083151502179055505b50565b6000600160008373ffffffffffffffffffffffffffffffffffffffff1673ffffffffffffffffffffffffffffffffffffffff16815260200190815260200160002060009054906101000a900460ff169050919050565b6106cf610b5d565b610741576040517f08c379a00000000000000000000000000000000000000000000000000000000081526004018080602001828103825260208152602001807f4f776e61626c653a2063616c6c6572206973206e6f7420746865206f776e657281525060200191505060405180910390fd5b600160008273ffffffffffffffffffffffffffffffffffffffff1673ffffffffffffffffffffffffffffffffffffffff16815260200190815260200160002060009054906101000a900460ff16610797576107f0565b6000600160008373ffffffffffffffffffffffffffffffffffffffff1673ffffffffffffffffffffffffffffffffffffffff16815260200190815260200160002060006101000a81548160ff0219169083151502179055505b50565b6107fb610f63565b610803610fe6565b600061080d611002565b905061081881610671565b61088a576040517f08c379a00000000000000000000000000000000000000000000000000000000081526004018080602001828103825260208152602001807f4f776e61626c653a2063616c6c6572206973206e6f7420746865206f776e657281525060200191505060405180910390fd5b600460008373ffffffffffffffffffffffffffffffffffffffff1673ffffffffffffffffffffffffffffffffffffffff16815260200190815260200160002060009054906101000a900460ff16610949576040517f08c379a00000000000000000000000000000000000000000000000000000000081526004018080602001828103825260108152602001807f416c72656164792044697361626c65640000000000000000000000000000000081525060200191505060405180910390fd5b600460008373ffffffffffffffffffffffffffffffffffffffff1673ffffffffffffffffffffffffffffffffffffffff16815260200190815260200160002060006101000a81549060ff0219169055600360008154809291906001900391905055508173ffffffffffffffffffffffffffffffffffffffff167f401331b3ec0dbb254a87bed093edeee065d22e4bfc115f1aff67bf51eeb5e44560405160405180910390a2506109f761100a565b50565b610a02610b5d565b610a74576040517f08c379a00000000000000000000000000000000000000000000000000000000081526004018080602001828103825260208152602001807f4f776e61626c653a2063616c6c6572206973206e6f7420746865206f776e657281525060200191505060405180910390fd5b600073ffffffffffffffffffffffffffffffffffffffff16600060019054906101000a900473ffffffffffffffffffffffffffffffffffffffff1673ffffffffffffffffffffffffffffffffffffffff167f8be0079c531659141344cd1fd0a4f28419497f9722a3daafe3b4186f6b6457e060405160405180910390a360008060016101000a81548173ffffffffffffffffffffffffffffffffffffffff021916908373ffffffffffffffffffffffffffffffffffffffff160217905550565b60008060019054906101000a900473ffffffffffffffffffffffffffffffffffffffff16905090565b60008060019054906101000a900473ffffffffffffffffffffffffffffffffffffffff1673ffffffffffffffffffffffffffffffffffffffff16610b9f611002565b73ffffffffffffffffffffffffffffffffffffffff1614905090565b60046020528060005260406000206000915054906101000a900460ff1681565b60028181548110610be857fe5b906000526020600020016000915054906101000a900473ffffffffffffffffffffffffffffffffffffffff1681565b610c1f610f63565b610c27610fe6565b6000610c31611002565b9050610c3c81610671565b610cae576040517f08c379a00000000000000000000000000000000000000000000000000000000081526004018080602001828103825260208152602001807f4f776e61626c653a2063616c6c6572206973206e6f7420746865206f776e657281525060200191505060405180910390fd5b600460008373ffffffffffffffffffffffffffffffffffffffff1673ffffffffffffffffffffffffffffffffffffffff16815260200190815260200160002060009054906101000a900460ff1615610d6e576040517f08c379a000000000000000000000000000000000000000000000000000000000815260040180806020018281038252600f8152602001807f416c726561647920456e61626c6564000000000000000000000000000000000081525060200191505060405180910390fd5b610d7782611026565b6001600460008473ffffffffffffffffffffffffffffffffffffffff1673ffffffffffffffffffffffffffffffffffffffff16815260200190815260200160002060006101000a81548160ff0219169083151502179055506003600081548092919060010191905055508173ffffffffffffffffffffffffffffffffffffffff167fbfd3ffa5a4cf4a66b4f5e2406903f0a3e382c54b4cf636a9e525478786be6c5960405160405180910390a250610e2d61100a565b50565b60006001905060008090505b83839050811015610ed65760046000858584818110610e5757fe5b9050602002013573ffffffffffffffffffffffffffffffffffffffff1673ffffffffffffffffffffffffffffffffffffffff1673ffffffffffffffffffffffffffffffffffffffff16815260200190815260200160002060009054906101000a900460ff16610ec95760009150610ed6565b8080600101915050610e3c565b5092915050565b610ee5610b5d565b610f57576040517f08c379a00000000000000000000000000000000000000000000000000000000081526004018080602001828103825260208152602001807f4f776e61626c653a2063616c6c6572206973206e6f7420746865206f776e657281525060200191505060405180910390fd5b610f608161126f565b50565b6000809054906101000a900460ff16610fe4576040517f08c379a000000000000000000000000000000000000000000000000000000000815260040180806020018281038252601f8152602001807f5265656e7472616e637947756172643a207265656e7472616e742063616c6c0081525060200191505060405180910390fd5b565b60008060006101000a81548160ff021916908315150217905550565b600033905090565b60016000806101000a81548160ff021916908315150217905550565b600073ffffffffffffffffffffffffffffffffffffffff168173ffffffffffffffffffffffffffffffffffffffff1614156110c9576040517f08c379a000000000000000000000000000000000000000000000000000000000815260040180806020018281038252601a8152602001807f476976656e2061646472657373206973206e6f742076616c696400000000000081525060200191505060405180910390fd5b8073ffffffffffffffffffffffffffffffffffffffff166317d7de7c6040518163ffffffff1660e01b815260040160006040518083038186803b15801561110f57600080fd5b505afa158015611123573d6000803e3d6000fd5b505050506040513d6000823e3d601f19601f82011682018060405250602081101561114d57600080fd5b810190808051604051939291908464010000000082111561116d57600080fd5b8382019150602082018581111561118357600080fd5b82518660018202830111640100000000821117156111a057600080fd5b8083526020830192505050908051906020019080838360005b838110156111d45780820151818401526020810190506111b9565b50505050905090810190601f1680156112015780820380516001836020036101000a031916815260200191505b50604052505050506002819080600181540180825580915050600190039060005260206000200160009091909190916101000a81548173ffffffffffffffffffffffffffffffffffffffff021916908373ffffffffffffffffffffffffffffffffffffffff16021790555050565b600073ffffffffffffffffffffffffffffffffffffffff168173ffffffffffffffffffffffffffffffffffffffff1614156112f5576040517f08c379a00000000000000000000000000000000000000000000000000000000081526004018080602001828103825260268152602001806113dd6026913960400191505060405180910390fd5b8073ffffffffffffffffffffffffffffffffffffffff16600060019054906101000a900473ffffffffffffffffffffffffffffffffffffffff1673ffffffffffffffffffffffffffffffffffffffff167f8be0079c531659141344cd1fd0a4f28419497f9722a3daafe3b4186f6b6457e060405160405180910390a380600060016101000a81548173ffffffffffffffffffffffffffffffffffffffff021916908373ffffffffffffffffffffffffffffffffffffffff1602179055505056fe76616c69646174657320616e206164647265737320746861742069742069736e2774206e756c6c4f776e61626c653a206e6577206f776e657220697320746865207a65726f2061646472657373a26469706673582212208bf9be634d19e0e07d7a3bb56f24fc90e1d90a2c6742b508bf4a22780aa0284a64736f6c6343000603003376616c69646174657320616e206164647265737320746861742069742069736e2774206e756c6c",
  "source": "pragma solidity ^0.6.0;\n\nimport \"./utility/Lockable.sol\";\nimport \"./utility/Ownable.sol\";\nimport \"./utility/Whitelist.sol\";\nimport \"./utility/Address.sol\";\nimport \"./interfaces/IBurner.sol\";\n\n/**\n * @title Registry contract \n */\n\ncontract Registry is Lockable, Whitelist {\n\n    using Address for address;\n\n    // Synthetics Array\n    address[] public syntheticArray;\n    // Count of Synthetics Enabled\n    uint256 public syntheticCount;\n    // Enabled Synthetics(Synthetic Address => bool).\n    mapping(address => bool) public synthetics;\n    // Token Factory address\n    address tokenFactoryAddress;\n\n    event EnabledSynthetic(address indexed syntheticToken);\n    event DisabledSynthetic(address indexed syntheticToken);\n\n    /**\n     * @param _tokenFactoryAddress token factory contract address\n     */\n    constructor(\n        address _tokenFactoryAddress\n    ) public nonReentrant()  {\n        address sender = _msgSender();\n\n        tokenFactoryAddress = _tokenFactoryAddress;\n        addAddress(sender);\n    }\n\n    /**\n     * @dev Check if Synthetic addresses are enabled.\n     * @param _synthetics Array of Synthetic Addresses.\n     */\n    function isSynthetic(address[] calldata _synthetics)\n        external\n        view\n        returns (bool isOk)\n    {\n        isOk = true;\n        for (uint256 i = 0; i < _synthetics.length; i++) {\n            if (!synthetics[_synthetics[i]]) {\n                isOk = false;\n                break;\n            }\n        }\n    }\n\n    /**\n     * @dev get Synthetic's Array length.\n     */\n    function syntheticLength() external view returns (uint256) {\n        return syntheticArray.length;\n    }\n\n    /**\n     * @dev Enable Synthetic.\n     * @param _synthetic Synthetic Address.\n     */\n    function enableSynthetic(address _synthetic)\n        external\n        nonReentrant()\n        onlyWhitelisted()\n    {\n        require(!synthetics[_synthetic], \"Already Enabled\");\n        _add(_synthetic);\n        synthetics[_synthetic] = true;\n        syntheticCount++;\n        emit EnabledSynthetic(_synthetic);\n    }\n\n    /**\n     * @dev Disable Synthetic.\n     * @param _synthetic Synthetic Address.\n     */\n    function disableSynthetic(address _synthetic)\n        external\n        nonReentrant()\n        onlyWhitelisted()\n    {\n        require(synthetics[_synthetic], \"Already Disabled\");\n        delete synthetics[_synthetic];\n        syntheticCount--;\n        emit DisabledSynthetic(_synthetic);\n    }\n\n\n    /**\n     * @dev Add Synthetic to Synthetic's array.\n     * @param _synthetic Synthetic Address.\n     **/\n    function _add(address _synthetic) internal {\n        require(_synthetic != address(0), \"Given address is not valid\");\n        \n        IBurner(_synthetic).getName(); // Checking if _synthetic has function getName()\n        syntheticArray.push(_synthetic);\n    }\n\n}",
  "sourcePath": "/home/pisuthd/Desktop/elliptix/chainlink-synth/core/contracts/Registry.sol",
  "compiler": {
    "name": "solc",
    "version": "0.6.3+commit.8dda9521.Emscripten.clang"
  },
  "schemaVersion": "3.2.0",
  "updatedAt": "2021-01-10T15:46:24.651Z",
  "networkType": "ethereum",
  "devdoc": {
    "methods": {
      "addAddress(address)": {
        "details": "adds a given address to the whitelist",
        "params": {
          "_address": "address to add"
        }
      },
      "constructor": {
        "params": {
          "_tokenFactoryAddress": "token factory contract address"
        }
      },
      "disableSynthetic(address)": {
        "details": "Disable Synthetic.",
        "params": {
          "_synthetic": "Synthetic Address."
        }
      },
      "enableSynthetic(address)": {
        "details": "Enable Synthetic.",
        "params": {
          "_synthetic": "Synthetic Address."
        }
      },
      "isOwner()": {
        "details": "Returns true if the caller is the current owner."
      },
      "isSynthetic(address[])": {
        "details": "Check if Synthetic addresses are enabled.",
        "params": {
          "_synthetics": "Array of Synthetic Addresses."
        }
      },
      "isWhitelisted(address)": {
        "details": "returns true if a given address is whitelisted, false if not",
        "params": {
          "_address": "address to check"
        },
        "returns": {
          "_0": "true if the address is whitelisted, false if not"
        }
      },
      "owner()": {
        "details": "Returns the address of the current owner."
      },
      "removeAddress(address)": {
        "details": "removes a given address from the whitelist",
        "params": {
          "_address": "address to remove"
        }
      },
      "renounceOwnership()": {
        "details": "Leaves the contract without owner. It will not be possible to call `onlyOwner` functions anymore. Can only be called by the current owner.     * NOTE: Renouncing ownership will leave the contract without an owner, thereby removing any functionality that is only available to the owner."
      },
      "syntheticLength()": {
        "details": "get Synthetic's Array length."
      },
      "transferOwnership(address)": {
        "details": "Transfers ownership of the contract to a new account (`newOwner`). Can only be called by the current owner."
      }
    },
    "title": "Registry contract "
  },
  "userdoc": {
    "methods": {}
  }
}